{
  "abi": [
    {
      "inputs": [
        {
          "internalType": "address",
          "name": "_trustContract",
          "type": "address"
        },
        {
          "internalType": "address",
          "name": "_trustIda",
          "type": "address"
        }
      ],
      "stateMutability": "nonpayable",
      "type": "constructor"
    },
    {
      "inputs": [
        {
          "internalType": "bytes",
          "name": "",
          "type": "bytes"
        }
      ],
      "name": "checkUpkeep",
      "outputs": [
        {
          "internalType": "bool",
          "name": "upkeepNeeded",
          "type": "bool"
        },
        {
          "internalType": "bytes",
          "name": "performData",
          "type": "bytes"
        }
      ],
      "stateMutability": "view",
      "type": "function"
    },
    {
      "inputs": [
        {
          "internalType": "bytes",
          "name": "performData",
          "type": "bytes"
        }
      ],
      "name": "performUpkeep",
      "outputs": [],
      "stateMutability": "nonpayable",
      "type": "function"
    }
  ],
  "bytecode": "608060405234801561001057600080fd5b5060405161048038038061048083398101604081905261002f916100ce565b600180546001600160a01b038381166001600160a01b031992831617909255600080549285169290911682179055604051637048027560e01b8152306004820152637048027590602401600060405180830381600087803b15801561009357600080fd5b505af11580156100a7573d6000803e3d6000fd5b505050505050610101565b80516001600160a01b03811681146100c957600080fd5b919050565b600080604083850312156100e157600080fd5b6100ea836100b2565b91506100f8602084016100b2565b90509250929050565b610370806101106000396000f3fe608060405234801561001057600080fd5b50600436106100365760003560e01c80634585e33b1461003b5780636e04ff0d14610050575b600080fd5b61004e61004936600461020e565b61007a565b005b61006361005e36600461020e565b61016c565b604051610071929190610280565b60405180910390f35b6000610088828401846102df565b600154604051636a6a536160e11b8152600481018390529192506000916001600160a01b039091169063d4d4a6c290602401602060405180830381865afa1580156100d7573d6000803e3d6000fd5b505050506040513d601f19601f820116820180604052508101906100fb91906102f8565b600154604051633b129c8d60e11b81526004810183905263ffffffff851660248201529192506001600160a01b031690637625391a90604401600060405180830381600087803b15801561014e57600080fd5b505af1158015610162573d6000803e3d6000fd5b5050505050505050565b600154604051636061ffd360e11b815242600482018190526000926060926001600160a01b039091169063c0c3ffa690602401602060405180830381865afa1580156101bc573d6000803e3d6000fd5b505050506040513d601f19601f820116820180604052508101906101e09190610311565b9250806040516020016101f591815260200190565b6040516020818303038152906040529150509250929050565b6000806020838503121561022157600080fd5b823567ffffffffffffffff8082111561023957600080fd5b818501915085601f83011261024d57600080fd5b81358181111561025c57600080fd5b86602082850101111561026e57600080fd5b60209290920196919550909350505050565b821515815260006020604081840152835180604085015260005b818110156102b65785810183015185820160600152820161029a565b818111156102c8576000606083870101525b50601f01601f191692909201606001949350505050565b6000602082840312156102f157600080fd5b5035919050565b60006020828403121561030a57600080fd5b5051919050565b60006020828403121561032357600080fd5b8151801515811461033357600080fd5b939250505056fea2646970667358221220ba4f49b2fd40607241200bf6623d00f75c29c8bad3da1bc049b96d78a6a49a1a64736f6c634300080d0033",
  "bytecodeSha1": "0f74a674a7df495c7f5fcf3f28550c329d59cfa2",
  "compiler": {
    "evm_version": "istanbul",
    "optimizer": {
      "enabled": true,
      "runs": 200
    },
    "version": "0.8.13+commit.abaa5c0e"
  },
  "contractName": "TrustKeeper",
  "language": "Solidity",
  "natspec": {
    "kind": "dev",
    "methods": {},
    "version": 1
  },
  "opcodes": "PUSH1 0x80 PUSH1 0x40 MSTORE CALLVALUE DUP1 ISZERO PUSH2 0x10 JUMPI PUSH1 0x0 DUP1 REVERT JUMPDEST POP PUSH1 0x4 CALLDATASIZE LT PUSH2 0x36 JUMPI PUSH1 0x0 CALLDATALOAD PUSH1 0xE0 SHR DUP1 PUSH4 0x4585E33B EQ PUSH2 0x3B JUMPI DUP1 PUSH4 0x6E04FF0D EQ PUSH2 0x50 JUMPI JUMPDEST PUSH1 0x0 DUP1 REVERT JUMPDEST PUSH2 0x4E PUSH2 0x49 CALLDATASIZE PUSH1 0x4 PUSH2 0x20E JUMP JUMPDEST PUSH2 0x7A JUMP JUMPDEST STOP JUMPDEST PUSH2 0x63 PUSH2 0x5E CALLDATASIZE PUSH1 0x4 PUSH2 0x20E JUMP JUMPDEST PUSH2 0x16C JUMP JUMPDEST PUSH1 0x40 MLOAD PUSH2 0x71 SWAP3 SWAP2 SWAP1 PUSH2 0x280 JUMP JUMPDEST PUSH1 0x40 MLOAD DUP1 SWAP2 SUB SWAP1 RETURN JUMPDEST PUSH1 0x0 PUSH2 0x88 DUP3 DUP5 ADD DUP5 PUSH2 0x2DF JUMP JUMPDEST PUSH1 0x1 SLOAD PUSH1 0x40 MLOAD PUSH4 0x6A6A5361 PUSH1 0xE1 SHL DUP2 MSTORE PUSH1 0x4 DUP2 ADD DUP4 SWAP1 MSTORE SWAP2 SWAP3 POP PUSH1 0x0 SWAP2 PUSH1 0x1 PUSH1 0x1 PUSH1 0xA0 SHL SUB SWAP1 SWAP2 AND SWAP1 PUSH4 0xD4D4A6C2 SWAP1 PUSH1 0x24 ADD PUSH1 0x20 PUSH1 0x40 MLOAD DUP1 DUP4 SUB DUP2 DUP7 GAS STATICCALL ISZERO DUP1 ISZERO PUSH2 0xD7 JUMPI RETURNDATASIZE PUSH1 0x0 DUP1 RETURNDATACOPY RETURNDATASIZE PUSH1 0x0 REVERT JUMPDEST POP POP POP POP PUSH1 0x40 MLOAD RETURNDATASIZE PUSH1 0x1F NOT PUSH1 0x1F DUP3 ADD AND DUP3 ADD DUP1 PUSH1 0x40 MSTORE POP DUP2 ADD SWAP1 PUSH2 0xFB SWAP2 SWAP1 PUSH2 0x2F8 JUMP JUMPDEST PUSH1 0x1 SLOAD PUSH1 0x40 MLOAD PUSH4 0x3B129C8D PUSH1 0xE1 SHL DUP2 MSTORE PUSH1 0x4 DUP2 ADD DUP4 SWAP1 MSTORE PUSH4 0xFFFFFFFF DUP6 AND PUSH1 0x24 DUP3 ADD MSTORE SWAP2 SWAP3 POP PUSH1 0x1 PUSH1 0x1 PUSH1 0xA0 SHL SUB AND SWAP1 PUSH4 0x7625391A SWAP1 PUSH1 0x44 ADD PUSH1 0x0 PUSH1 0x40 MLOAD DUP1 DUP4 SUB DUP2 PUSH1 0x0 DUP8 DUP1 EXTCODESIZE ISZERO DUP1 ISZERO PUSH2 0x14E JUMPI PUSH1 0x0 DUP1 REVERT JUMPDEST POP GAS CALL ISZERO DUP1 ISZERO PUSH2 0x162 JUMPI RETURNDATASIZE PUSH1 0x0 DUP1 RETURNDATACOPY RETURNDATASIZE PUSH1 0x0 REVERT JUMPDEST POP POP POP POP POP POP POP POP JUMP JUMPDEST PUSH1 0x1 SLOAD PUSH1 0x40 MLOAD PUSH4 0x6061FFD3 PUSH1 0xE1 SHL DUP2 MSTORE TIMESTAMP PUSH1 0x4 DUP3 ADD DUP2 SWAP1 MSTORE PUSH1 0x0 SWAP3 PUSH1 0x60 SWAP3 PUSH1 0x1 PUSH1 0x1 PUSH1 0xA0 SHL SUB SWAP1 SWAP2 AND SWAP1 PUSH4 0xC0C3FFA6 SWAP1 PUSH1 0x24 ADD PUSH1 0x20 PUSH1 0x40 MLOAD DUP1 DUP4 SUB DUP2 DUP7 GAS STATICCALL ISZERO DUP1 ISZERO PUSH2 0x1BC JUMPI RETURNDATASIZE PUSH1 0x0 DUP1 RETURNDATACOPY RETURNDATASIZE PUSH1 0x0 REVERT JUMPDEST POP POP POP POP PUSH1 0x40 MLOAD RETURNDATASIZE PUSH1 0x1F NOT PUSH1 0x1F DUP3 ADD AND DUP3 ADD DUP1 PUSH1 0x40 MSTORE POP DUP2 ADD SWAP1 PUSH2 0x1E0 SWAP2 SWAP1 PUSH2 0x311 JUMP JUMPDEST SWAP3 POP DUP1 PUSH1 0x40 MLOAD PUSH1 0x20 ADD PUSH2 0x1F5 SWAP2 DUP2 MSTORE PUSH1 0x20 ADD SWAP1 JUMP JUMPDEST PUSH1 0x40 MLOAD PUSH1 0x20 DUP2 DUP4 SUB SUB DUP2 MSTORE SWAP1 PUSH1 0x40 MSTORE SWAP2 POP POP SWAP3 POP SWAP3 SWAP1 POP JUMP JUMPDEST PUSH1 0x0 DUP1 PUSH1 0x20 DUP4 DUP6 SUB SLT ISZERO PUSH2 0x221 JUMPI PUSH1 0x0 DUP1 REVERT JUMPDEST DUP3 CALLDATALOAD PUSH8 0xFFFFFFFFFFFFFFFF DUP1 DUP3 GT ISZERO PUSH2 0x239 JUMPI PUSH1 0x0 DUP1 REVERT JUMPDEST DUP2 DUP6 ADD SWAP2 POP DUP6 PUSH1 0x1F DUP4 ADD SLT PUSH2 0x24D JUMPI PUSH1 0x0 DUP1 REVERT JUMPDEST DUP2 CALLDATALOAD DUP2 DUP2 GT ISZERO PUSH2 0x25C JUMPI PUSH1 0x0 DUP1 REVERT JUMPDEST DUP7 PUSH1 0x20 DUP3 DUP6 ADD ADD GT ISZERO PUSH2 0x26E JUMPI PUSH1 0x0 DUP1 REVERT JUMPDEST PUSH1 0x20 SWAP3 SWAP1 SWAP3 ADD SWAP7 SWAP2 SWAP6 POP SWAP1 SWAP4 POP POP POP POP JUMP JUMPDEST DUP3 ISZERO ISZERO DUP2 MSTORE PUSH1 0x0 PUSH1 0x20 PUSH1 0x40 DUP2 DUP5 ADD MSTORE DUP4 MLOAD DUP1 PUSH1 0x40 DUP6 ADD MSTORE PUSH1 0x0 JUMPDEST DUP2 DUP2 LT ISZERO PUSH2 0x2B6 JUMPI DUP6 DUP2 ADD DUP4 ADD MLOAD DUP6 DUP3 ADD PUSH1 0x60 ADD MSTORE DUP3 ADD PUSH2 0x29A JUMP JUMPDEST DUP2 DUP2 GT ISZERO PUSH2 0x2C8 JUMPI PUSH1 0x0 PUSH1 0x60 DUP4 DUP8 ADD ADD MSTORE JUMPDEST POP PUSH1 0x1F ADD PUSH1 0x1F NOT AND SWAP3 SWAP1 SWAP3 ADD PUSH1 0x60 ADD SWAP5 SWAP4 POP POP POP POP JUMP JUMPDEST PUSH1 0x0 PUSH1 0x20 DUP3 DUP5 SUB SLT ISZERO PUSH2 0x2F1 JUMPI PUSH1 0x0 DUP1 REVERT JUMPDEST POP CALLDATALOAD SWAP2 SWAP1 POP JUMP JUMPDEST PUSH1 0x0 PUSH1 0x20 DUP3 DUP5 SUB SLT ISZERO PUSH2 0x30A JUMPI PUSH1 0x0 DUP1 REVERT JUMPDEST POP MLOAD SWAP2 SWAP1 POP JUMP JUMPDEST PUSH1 0x0 PUSH1 0x20 DUP3 DUP5 SUB SLT ISZERO PUSH2 0x323 JUMPI PUSH1 0x0 DUP1 REVERT JUMPDEST DUP2 MLOAD DUP1 ISZERO ISZERO DUP2 EQ PUSH2 0x333 JUMPI PUSH1 0x0 DUP1 REVERT JUMPDEST SWAP4 SWAP3 POP POP POP JUMP INVALID LOG2 PUSH5 0x6970667358 0x22 SLT KECCAK256 0xBA 0x4F 0x49 0xB2 REVERT BLOCKHASH PUSH1 0x72 COINBASE KECCAK256 SIGNEXTEND 0xF6 PUSH3 0x3D00F7 0x5C 0x29 0xC8 0xBA 0xD3 0xDA SHL 0xC0 0x49 0xB9 PUSH14 0x78A6A49A1A64736F6C634300080D STOP CALLER ",
  "sha1": "010482a0387e82239baf765cb9917ed5c8f63822",
  "source": "// SPDX-License-Identifier: MIT\npragma solidity ^0.8.10;\n\ninterface KeeperCompatibleInterface {\n    function checkUpkeep(bytes calldata checkData)\n        external\n        returns (bool upkeepNeeded, bytes memory performData);\n\n    function performUpkeep(bytes calldata performData) external;\n}\n\npragma solidity ^0.8.13;\n\nimport {ITrust} from \"../interfaces/ITrust.sol\";\nimport {ITrustIDA} from \"../interfaces/ITrustIDA.sol\";\n\ncontract TrustKeeper is KeeperCompatibleInterface {\n    ITrust private trustContract;\n    ITrustIDA private trustIDA;\n\n    constructor(address _trustContract, address _trustIda) {\n        trustIDA = ITrustIDA(_trustIda);\n        trustContract = ITrust(_trustContract);\n        trustContract.addAdmin(address(this));\n    }\n\n    function checkUpkeep(\n        bytes calldata /*checkData*/\n    )\n        external\n        view\n        override\n        returns (bool upkeepNeeded, bytes memory performData)\n    {\n        uint256 _time = block.timestamp;\n        upkeepNeeded = trustIDA.viewTimestamp(_time);\n        performData = abi.encodePacked(_time);\n    }\n\n    function performUpkeep(bytes calldata performData) external override {\n        uint256 _time = abi.decode(performData, (uint256));\n        uint256 amount = trustIDA.amountTodistribute(_time);\n        trustIDA.distribute(amount, uint32(_time));\n    }\n}\n",
  "sourcePath": "contracts/Investmentkeeper.sol",
  "type": "contract"
}