{
  "abi": [
    {
      "inputs": [
        {
          "internalType": "address",
          "name": "host",
          "type": "address"
        },
        {
          "internalType": "address",
          "name": "cfa",
          "type": "address"
        }
      ],
      "stateMutability": "nonpayable",
      "type": "constructor"
    },
    {
      "inputs": [],
      "name": "Emploee__not_in__List",
      "type": "error"
    },
    {
      "anonymous": false,
      "inputs": [
        {
          "indexed": true,
          "internalType": "address",
          "name": "previousOwner",
          "type": "address"
        },
        {
          "indexed": true,
          "internalType": "address",
          "name": "newOwner",
          "type": "address"
        }
      ],
      "name": "OwnershipTransferred",
      "type": "event"
    },
    {
      "inputs": [
        {
          "internalType": "address",
          "name": "_employeeAddress",
          "type": "address"
        },
        {
          "internalType": "uint256",
          "name": "_salary",
          "type": "uint256"
        },
        {
          "internalType": "uint256",
          "name": "_paymentInterval",
          "type": "uint256"
        },
        {
          "internalType": "uint256",
          "name": "_endOfContract",
          "type": "uint256"
        },
        {
          "internalType": "uint256",
          "name": "_payType",
          "type": "uint256"
        }
      ],
      "name": "_addemployee",
      "outputs": [],
      "stateMutability": "nonpayable",
      "type": "function"
    },
    {
      "inputs": [
        {
          "internalType": "uint8",
          "name": "_payType",
          "type": "uint8"
        }
      ],
      "name": "_createCompany",
      "outputs": [],
      "stateMutability": "nonpayable",
      "type": "function"
    },
    {
      "inputs": [
        {
          "internalType": "address[]",
          "name": "_employees",
          "type": "address[]"
        },
        {
          "internalType": "int96[]",
          "name": "_amounts",
          "type": "int96[]"
        }
      ],
      "name": "_prepareStreamUpdate",
      "outputs": [],
      "stateMutability": "nonpayable",
      "type": "function"
    },
    {
      "inputs": [
        {
          "internalType": "address",
          "name": "_keeper",
          "type": "address"
        }
      ],
      "name": "addAdmin",
      "outputs": [],
      "stateMutability": "nonpayable",
      "type": "function"
    },
    {
      "inputs": [
        {
          "internalType": "address",
          "name": "_idaCon",
          "type": "address"
        }
      ],
      "name": "addIdaContract",
      "outputs": [],
      "stateMutability": "nonpayable",
      "type": "function"
    },
    {
      "inputs": [
        {
          "internalType": "address",
          "name": "_to",
          "type": "address"
        }
      ],
      "name": "closeStream",
      "outputs": [],
      "stateMutability": "nonpayable",
      "type": "function"
    },
    {
      "inputs": [
        {
          "internalType": "address",
          "name": "",
          "type": "address"
        },
        {
          "internalType": "uint256",
          "name": "",
          "type": "uint256"
        },
        {
          "internalType": "address",
          "name": "",
          "type": "address"
        }
      ],
      "name": "companyOneTimePayIdAddressAmount",
      "outputs": [
        {
          "internalType": "uint256",
          "name": "",
          "type": "uint256"
        }
      ],
      "stateMutability": "view",
      "type": "function"
    },
    {
      "inputs": [
        {
          "internalType": "address",
          "name": "_employee",
          "type": "address"
        }
      ],
      "name": "getEmployeeEmployers",
      "outputs": [
        {
          "internalType": "address[]",
          "name": "",
          "type": "address[]"
        }
      ],
      "stateMutability": "view",
      "type": "function"
    },
    {
      "inputs": [
        {
          "internalType": "address",
          "name": "_company",
          "type": "address"
        },
        {
          "internalType": "address",
          "name": "_employee",
          "type": "address"
        }
      ],
      "name": "getEmployeeFlowRate",
      "outputs": [
        {
          "internalType": "int96",
          "name": "",
          "type": "int96"
        }
      ],
      "stateMutability": "view",
      "type": "function"
    },
    {
      "inputs": [
        {
          "internalType": "address",
          "name": "_employee",
          "type": "address"
        }
      ],
      "name": "getEmployeeIndex",
      "outputs": [
        {
          "internalType": "uint256",
          "name": "index",
          "type": "uint256"
        }
      ],
      "stateMutability": "view",
      "type": "function"
    },
    {
      "inputs": [],
      "name": "getPeriodicEmployee",
      "outputs": [
        {
          "internalType": "uint256",
          "name": "len",
          "type": "uint256"
        }
      ],
      "stateMutability": "view",
      "type": "function"
    },
    {
      "inputs": [
        {
          "internalType": "address",
          "name": "_company",
          "type": "address"
        }
      ],
      "name": "getTotalCompanyEmployees",
      "outputs": [
        {
          "internalType": "uint256",
          "name": "",
          "type": "uint256"
        }
      ],
      "stateMutability": "view",
      "type": "function"
    },
    {
      "inputs": [
        {
          "internalType": "address",
          "name": "_company",
          "type": "address"
        }
      ],
      "name": "getTotalPaying",
      "outputs": [
        {
          "internalType": "uint256",
          "name": "",
          "type": "uint256"
        }
      ],
      "stateMutability": "view",
      "type": "function"
    },
    {
      "inputs": [
        {
          "internalType": "address",
          "name": "_employer",
          "type": "address"
        }
      ],
      "name": "getUpdateables",
      "outputs": [
        {
          "components": [
            {
              "internalType": "bool",
              "name": "isUpdatable",
              "type": "bool"
            },
            {
              "internalType": "address[]",
              "name": "_addresses",
              "type": "address[]"
            },
            {
              "internalType": "int96[]",
              "name": "_updates",
              "type": "int96[]"
            }
          ],
          "internalType": "struct TrustCFA.Updateables",
          "name": "_updates",
          "type": "tuple"
        }
      ],
      "stateMutability": "view",
      "type": "function"
    },
    {
      "inputs": [
        {
          "internalType": "address",
          "name": "_companyAddress",
          "type": "address"
        }
      ],
      "name": "isActiveCompany",
      "outputs": [
        {
          "internalType": "bool",
          "name": "",
          "type": "bool"
        }
      ],
      "stateMutability": "view",
      "type": "function"
    },
    {
      "inputs": [],
      "name": "makePayment",
      "outputs": [],
      "stateMutability": "nonpayable",
      "type": "function"
    },
    {
      "inputs": [
        {
          "internalType": "address",
          "name": "",
          "type": "address"
        }
      ],
      "name": "oneTimeUserTotalPay",
      "outputs": [
        {
          "internalType": "uint256",
          "name": "",
          "type": "uint256"
        }
      ],
      "stateMutability": "view",
      "type": "function"
    },
    {
      "inputs": [
        {
          "internalType": "address",
          "name": "_to",
          "type": "address"
        },
        {
          "internalType": "int96",
          "name": "_flowRate",
          "type": "int96"
        }
      ],
      "name": "openStream",
      "outputs": [],
      "stateMutability": "nonpayable",
      "type": "function"
    },
    {
      "inputs": [],
      "name": "owner",
      "outputs": [
        {
          "internalType": "address",
          "name": "",
          "type": "address"
        }
      ],
      "stateMutability": "view",
      "type": "function"
    },
    {
      "inputs": [
        {
          "internalType": "address",
          "name": "to",
          "type": "address"
        },
        {
          "internalType": "int96",
          "name": "flowRate",
          "type": "int96"
        }
      ],
      "name": "reduceFlow",
      "outputs": [],
      "stateMutability": "nonpayable",
      "type": "function"
    },
    {
      "inputs": [
        {
          "internalType": "address",
          "name": "_employee",
          "type": "address"
        }
      ],
      "name": "removeEmployee",
      "outputs": [],
      "stateMutability": "nonpayable",
      "type": "function"
    },
    {
      "inputs": [],
      "name": "renounceOwnership",
      "outputs": [],
      "stateMutability": "nonpayable",
      "type": "function"
    },
    {
      "inputs": [
        {
          "internalType": "string",
          "name": "",
          "type": "string"
        }
      ],
      "name": "s_assetAddress",
      "outputs": [
        {
          "internalType": "address",
          "name": "",
          "type": "address"
        }
      ],
      "stateMutability": "view",
      "type": "function"
    },
    {
      "inputs": [
        {
          "internalType": "address",
          "name": "",
          "type": "address"
        },
        {
          "internalType": "uint256",
          "name": "",
          "type": "uint256"
        }
      ],
      "name": "s_companyEmployees",
      "outputs": [
        {
          "internalType": "address",
          "name": "",
          "type": "address"
        }
      ],
      "stateMutability": "view",
      "type": "function"
    },
    {
      "inputs": [
        {
          "internalType": "address",
          "name": "",
          "type": "address"
        }
      ],
      "name": "s_companyInfo",
      "outputs": [
        {
          "internalType": "address",
          "name": "_address",
          "type": "address"
        },
        {
          "internalType": "bool",
          "name": "status",
          "type": "bool"
        },
        {
          "internalType": "bool",
          "name": "payingInstram",
          "type": "bool"
        },
        {
          "internalType": "bool",
          "name": "payingPeriodically",
          "type": "bool"
        },
        {
          "internalType": "bool",
          "name": "payingOneTime",
          "type": "bool"
        },
        {
          "internalType": "uint256",
          "name": "totalPaying",
          "type": "uint256"
        },
        {
          "internalType": "uint256",
          "name": "totalperiodicPaid",
          "type": "uint256"
        },
        {
          "internalType": "uint256",
          "name": "streamStart",
          "type": "uint256"
        }
      ],
      "stateMutability": "view",
      "type": "function"
    },
    {
      "inputs": [
        {
          "internalType": "address",
          "name": "newOwner",
          "type": "address"
        }
      ],
      "name": "transferOwnership",
      "outputs": [],
      "stateMutability": "nonpayable",
      "type": "function"
    },
    {
      "inputs": [
        {
          "internalType": "address",
          "name": "_company",
          "type": "address"
        }
      ],
      "name": "viewCompanyEmployees",
      "outputs": [
        {
          "internalType": "address[]",
          "name": "fullList",
          "type": "address[]"
        }
      ],
      "stateMutability": "view",
      "type": "function"
    },
    {
      "inputs": [
        {
          "internalType": "address",
          "name": "_company",
          "type": "address"
        }
      ],
      "name": "viewCompanyInfo",
      "outputs": [
        {
          "components": [
            {
              "internalType": "address",
              "name": "_address",
              "type": "address"
            },
            {
              "internalType": "bool",
              "name": "status",
              "type": "bool"
            },
            {
              "internalType": "bool",
              "name": "payingInstram",
              "type": "bool"
            },
            {
              "internalType": "bool",
              "name": "payingPeriodically",
              "type": "bool"
            },
            {
              "internalType": "bool",
              "name": "payingOneTime",
              "type": "bool"
            },
            {
              "internalType": "uint256",
              "name": "totalPaying",
              "type": "uint256"
            },
            {
              "internalType": "uint256",
              "name": "totalperiodicPaid",
              "type": "uint256"
            },
            {
              "internalType": "uint256",
              "name": "streamStart",
              "type": "uint256"
            }
          ],
          "internalType": "struct TrustCFA.Company",
          "name": "",
          "type": "tuple"
        }
      ],
      "stateMutability": "view",
      "type": "function"
    },
    {
      "inputs": [
        {
          "internalType": "address",
          "name": "_company",
          "type": "address"
        },
        {
          "internalType": "address",
          "name": "_employee",
          "type": "address"
        }
      ],
      "name": "viewEmployeeInfo",
      "outputs": [
        {
          "components": [
            {
              "internalType": "bool",
              "name": "isActive",
              "type": "bool"
            },
            {
              "internalType": "uint256",
              "name": "monthlyIncome",
              "type": "uint256"
            },
            {
              "internalType": "uint256",
              "name": "startTime",
              "type": "uint256"
            },
            {
              "internalType": "uint256",
              "name": "paymentInterval",
              "type": "uint256"
            },
            {
              "internalType": "uint256",
              "name": "endTime",
              "type": "uint256"
            },
            {
              "internalType": "uint256",
              "name": "totalpaid",
              "type": "uint256"
            },
            {
              "internalType": "bool",
              "name": "isStreamed",
              "type": "bool"
            },
            {
              "internalType": "bool",
              "name": "isPeriodic",
              "type": "bool"
            },
            {
              "internalType": "bool",
              "name": "isOneTime",
              "type": "bool"
            }
          ],
          "internalType": "struct TrustCFA.EmployeeInfo",
          "name": "",
          "type": "tuple"
        }
      ],
      "stateMutability": "view",
      "type": "function"
    }
  ],
  "bytecode": "60806040523480156200001157600080fd5b506040516200240f3803806200240f8339810160408190526200003491620000de565b6200003f3362000071565b600280546001600160a01b039384166001600160a01b0319918216179091556001805492909316911617905562000116565b600080546001600160a01b038381166001600160a01b0319831681178455604051919092169283917f8be0079c531659141344cd1fd0a4f28419497f9722a3daafe3b4186f6b6457e09190a35050565b80516001600160a01b0381168114620000d957600080fd5b919050565b60008060408385031215620000f257600080fd5b620000fd83620000c1565b91506200010d60208401620000c1565b90509250929050565b6122e980620001266000396000f3fe608060405234801561001057600080fd5b50600436106101ce5760003560e01c8063a2bae4af11610104578063de64815c116100a2578063f97f266b11610071578063f97f266b146106e1578063fcb8357514610701578063fda9d6c514610732578063ff4b39ae1461074557600080fd5b8063de64815c146105df578063e3f2018014610605578063ede4668c146106bb578063f2fde38b146106ce57600080fd5b8063d0e8bfcc116100de578063d0e8bfcc146104cd578063d108177a146104e0578063d8d79700146105c4578063de4b9e93146105cc57600080fd5b8063a2bae4af14610489578063a6d6f37f14610491578063d0c68a4c146104a457600080fd5b80638b54e09d11610171578063985081161161014b578063985081161461035157806399a8906a146103645780639d5800ce146103775780639eea3ede1461046957600080fd5b80638b54e09d146102d65780638be1e996146103145780638da5cb5b1461034057600080fd5b80631c5145a8116101ad5780631c5145a8146102695780637048027514610289578063715018a6146102bb578063724e60ef146102c357600080fd5b8062776919146101d35780630ef4790a146101fc578063126d7b9214610248575b600080fd5b6101e66101e1366004611ace565b610758565b6040516101f39190611af0565b60405180910390f35b61023061020a366004611bac565b80516020818301810180516005825292820191909301209152546001600160a01b031681565b6040516001600160a01b0390911681526020016101f3565b61025b610256366004611ace565b6107ce565b6040519081526020016101f3565b61027c610277366004611c2c565b61084d565b6040516101f39190611c5f565b6102b9610297366004611ace565b600f80546001600160a01b0319166001600160a01b0392909216919091179055565b005b6102b9610947565b6102b96102d1366004611cd1565b610986565b6103046102e4366004611ace565b6001600160a01b0390811660009081526008602052604090205416151590565b60405190151581526020016101f3565b61025b610322366004611ace565b6001600160a01b031660009081526008602052604090206001015490565b6000546001600160a01b0316610230565b6102b961035f366004611db6565b610e31565b610230610372366004611e76565b610fdb565b61045c610385366004611ace565b6040805161010081018252600080825260208201819052918101829052606081018290526080810182905260a0810182905260c0810182905260e0810191909152506001600160a01b039081166000908152600860209081526040918290208251610100810184528154948516815260ff600160a01b86048116151593820193909352600160a81b85048316151593810193909352600160b01b8404821615156060840152600160b81b9093041615156080820152600182015460a0820152600282015460c082015260039091015460e082015290565b6040516101f39190611ea0565b61025b610477366004611ace565b600d6020526000908152604090205481565b600b5461025b565b6102b961049f366004611f0f565b611013565b61025b6104b2366004611ace565b6001600160a01b031660009081526007602052604090205490565b6102b96104db366004611f32565b6112bc565b6102b96104ee366004611ace565b604080516101208101825260008082526020808301828152838501838152606085018481526080860185815260a0870186815260c0880187815260e08901888152610100808b018a8152338b52600e8a528c8b206001600160a01b039e909e168b529c909852999097209751885460ff191690151517885593516001880155915160028701555160038601555160048501555160058401559051600690920180549351945161ffff1990941692151561ff00191692909217931515029290921762ff000019166201000091151591909102179055565b6102b96112ca565b6102b96105da366004611ace565b61148c565b6105f26105ed366004611c2c565b611496565b604051600b9190910b81526020016101f3565b61066e610613366004611ace565b60086020526000908152604090208054600182015460028301546003909301546001600160a01b0383169360ff600160a01b8504811694600160a81b8104821694600160b01b8204831694600160b81b909204909216929088565b604080516001600160a01b03909916895296151560208901529415159587019590955291151560608601521515608085015260a084015260c083019190915260e0820152610100016101f3565b6102b96106c9366004611ace565b6114dc565b6102b96106dc366004611ace565b611528565b6106f46106ef366004611ace565b6115c0565b6040516101f39190611f9a565b61025b61070f36600461201c565b600660209081526000938452604080852082529284528284209052825290205481565b6102b9610740366004611f32565b6116f6565b6101e6610753366004611ace565b611700565b6001600160a01b0381166000908152600760209081526040918290208054835181840281018401909452808452606093928301828280156107c257602002820191906000526020600020905b81546001600160a01b031681526001909101906020018083116107a4575b50505050509050919050565b3360009081526007602052604081205460005b818111156108465733600090815260076020526040902080546001600160a01b03861691908390811061081657610816612058565b6000918252602090912001546001600160a01b031603610834578092505b8061083e81612084565b9150506107e1565b5050919050565b6108a460405180610120016040528060001515815260200160008152602001600081526020016000815260200160008152602001600081526020016000151581526020016000151581526020016000151581525090565b506001600160a01b039182166000908152600e60209081526040808320939094168252918252829020825161012081018452815460ff908116151582526001830154938201939093526002820154938101939093526003810154606084015260048101546080840152600581015460a084015260060154808216151560c08401526101008082048316151560e08501526201000090910490911615159082015290565b6000546001600160a01b0316331461097a5760405162461bcd60e51b81526004016109719061209d565b60405180910390fd5b6109846000611774565b565b3360009081526008602052604090208054600160a01b900460ff1615156001146109df5760405162461bcd60e51b815260206004820152600a6024820152696e6f742061637469766560b01b6044820152606401610971565b81600003610be8576040518061012001604052806000151581526020018681526020014281526020018581526020018481526020016000815260200160011515815260200160001515815260200160001515815250600e6000336001600160a01b03166001600160a01b031681526020019081526020016000206000886001600160a01b03166001600160a01b0316815260200190815260200160002060008201518160000160006101000a81548160ff0219169083151502179055506020820151816001015560408201518160020155606082015181600301556080820151816004015560a0820151816005015560c08201518160060160006101000a81548160ff02191690831515021790555060e08201518160060160016101000a81548160ff0219169083151502179055506101008201518160060160026101000a81548160ff0219169083151502179055509050508460086000336001600160a01b03166001600160a01b031681526020019081526020016000206001016000828254610b6a91906120d2565b9091555050336000908152600760209081526040822080546001818101835591845291832090910180546001600160a01b038a166001600160a01b03199182168117909255600c805493840181559093527fdf6966c971051c3d54ec59162606531493a51404a002842f56009d7e5cf4a8c790910180549092161790555b81600103610df1576040518061012001604052806000151581526020018681526020014281526020018581526020018481526020016000815260200160001515815260200160011515815260200160001515815250600e6000336001600160a01b03166001600160a01b031681526020019081526020016000206000886001600160a01b03166001600160a01b0316815260200190815260200160002060008201518160000160006101000a81548160ff0219169083151502179055506020820151816001015560408201518160020155606082015181600301556080820151816004015560a0820151816005015560c08201518160060160006101000a81548160ff02191690831515021790555060e08201518160060160016101000a81548160ff0219169083151502179055506101008201518160060160026101000a81548160ff0219169083151502179055509050508460086000336001600160a01b03166001600160a01b031681526020019081526020016000206001016000828254610d7391906120d2565b9091555050336000908152600760209081526040822080546001818101835591845291832090910180546001600160a01b038a166001600160a01b03199182168117909255600b805493840181559093527f0175b7a638427703f0dbe7bb9bbf987a2551717b34e79f33b5b1008d1fa01db990910180549092161790555b5050506001600160a01b039092166000908152600a602090815260408220805460018101825590835291200180546001600160a01b031916331790555050565b3360009081526008602052604090208151835114610e7e5760405162461bcd60e51b815260206004820152600a6024820152696172726179732021657160b01b6044820152606401610971565b81513360009081526007602052604090205480821115610e9d57600080fd5b6000805b83811015610f39576000878281518110610ebd57610ebd612058565b6020026020010151905060005b84811015610f2f5733600090815260076020526040902080546001600160a01b038416919083908110610eff57610eff612058565b6000918252602090912001546001600160a01b031603610f2757610f246001856120d2565b93505b600101610eca565b5050600101610ea1565b50828103610fb75760408051606081018252600180825260208083018a81528385018a905233600090815260098352949094208351815460ff191690151517815593518051939493610f92938501929190910190611986565b5060408201518051610fae9160028401916020909101906119eb565b50905050610fd3565b604051600162d149c360e01b0319815260040160405180910390fd5b505050505050565b60076020528160005260406000208181548110610ff757600080fd5b6000918252602090912001546001600160a01b03169150829050565b8060ff166000036110fa57604080516101008101825233808252600160208084018281528486018381526000606087018181526080880182815260a0890183815260c08a0184815260e08b018581529985526008909752999092209751885494519351915192511515600160b81b0260ff60b81b19931515600160b01b0260ff60b01b19931515600160a81b029390931661ffff60a81b19951515600160a01b026001600160a81b03199097166001600160a01b03939093169290921795909517939093169290921791909117161784559351908301559151600282015590516003909101555b8060ff166001036111e057604080516101008101825233808252600160208084018281526000858701818152606087018581526080880183815260a0890184815260c08a0185815260e08b018681529986526008909752999093209751885494519251915193511515600160b81b0260ff60b81b19941515600160b01b0260ff60b01b19931515600160a81b029390931661ffff60a81b19941515600160a01b026001600160a81b03199097166001600160a01b039390931692909217959095179290921691909117171617845593519083015591516002820155905160039091015550565b604080516101008101825233808252600160208084018281526000858701818152606087018281526080880186815260a0890184815260c08a0185815260e08b018681529986526008909752999093209751885494519251915193511515600160b81b0260ff60b81b19941515600160b01b0260ff60b01b19931515600160a81b029390931661ffff60a81b19941515600160a01b026001600160a81b03199097166001600160a01b03939093169290921795909517929092169190911717161784559351908301559151600282015590516003909101555b50565b6112c682826117c4565b5050565b33600090815260076020526040902054806112e457600080fd5b6003546004543360008181526008602052604081206001015490936001600160a01b03908116936323b872dd93929116906040516001600160e01b031960e086901b1681526001600160a01b03938416600482015292909116602483015260448201526064016020604051808303816000875af1158015611369573d6000803e3d6000fd5b505050506040513d601f19601f8201168201806040525081019061138d91906120ea565b9050806113ce5760405162461bcd60e51b815260206004820152600f60248201526e1d1c985b9cd9995c8819985a5b1959608a1b6044820152606401610971565b60005b82811015611487573360009081526007602052604081208054839081106113fa576113fa612058565b6000918252602090912001546004805460405163024b48f360e61b815233928101929092526001600160a01b0392831660248301819052935091909116906392d23cc090604401600060405180830381600087803b15801561145b57600080fd5b505af115801561146f573d6000803e3d6000fd5b5050505050808061147f90612084565b9150506113d1565b505050565b6112b930826118e3565b6001600160a01b038083166000908152600e60209081526040808320938516835292905290812060010154816114cf62278d008361210c565b9050805b95945050505050565b6000546001600160a01b031633146115065760405162461bcd60e51b81526004016109719061209d565b600480546001600160a01b0319166001600160a01b0392909216919091179055565b6000546001600160a01b031633146115525760405162461bcd60e51b81526004016109719061209d565b6001600160a01b0381166115b75760405162461bcd60e51b815260206004820152602660248201527f4f776e61626c653a206e6577206f776e657220697320746865207a65726f206160448201526564647265737360d01b6064820152608401610971565b6112b981611774565b6115e6604051806060016040528060001515815260200160608152602001606081525090565b6001600160a01b0382166000908152600960209081526040918290208251606081018452815460ff16151581526001820180548551818602810186019096528086529194929385810193929083018282801561166b57602002820191906000526020600020905b81546001600160a01b0316815260019091019060200180831161164d575b50505050508152602001600282018054806020026020016040519081016040528092919081815260200182805480156116e657602002820191906000526020600020906000905b825461010083900a9004600b0b815260206017830181900493840193600103600c9093019290920291018084116116b25790505b5050505050815250509050919050565b6112c6828261192e565b6001600160a01b0381166000908152600a60209081526040918290208054835181840281018401909452808452606093928301828280156107c2576020028201919060005260206000209081546001600160a01b031681526001909101906020018083116107a45750505050509050919050565b600080546001600160a01b038381166001600160a01b0319831681178455604051919092169283917f8be0079c531659141344cd1fd0a4f28419497f9722a3daafe3b4186f6b6457e09190a35050565b6001600160a01b0382163014806117e257506001600160a01b038216155b156117eb575050565b6002546001546003546001600160a01b03928316926339255d5b9281169163317e182f60e11b9116868660005b6040519080825280601f01601f191660200182016040528015611842576020820181803683370190505b50604051602401611856949392919061218a565b60408051601f198184030181529181526020820180516001600160e01b03166001600160e01b03199485161790525160e085901b909216825261189c92916004016121ca565b6000604051808303816000875af11580156118bb573d6000803e3d6000fd5b505050506040513d6000823e601f3d908101601f191682016040526114879190810190612211565b6002546001546003546040805160008152602081019091526001600160a01b03938416936339255d5b93811692635a5999e360e11b926118569290911690889088906044810161227f565b6001600160a01b03821630148061194c57506001600160a01b038216155b15611955575050565b6002546001546003546001600160a01b03928316926339255d5b928116916328104d3160e11b911686866000611818565b8280548282559060005260206000209081019282156119db579160200282015b828111156119db57825182546001600160a01b0319166001600160a01b039091161782556020909201916001909101906119a6565b506119e7929150611a9d565b5090565b828054828255906000526020600020906001016002900481019282156119db5791602002820160005b83821115611a6157835183826101000a8154816001600160601b030219169083600b0b6001600160601b031602179055509260200192600c01602081600b01049283019260010302611a14565b8015611a945782816101000a8154906001600160601b030219169055600c01602081600b01049283019260010302611a61565b50506119e79291505b5b808211156119e75760008155600101611a9e565b80356001600160a01b0381168114611ac957600080fd5b919050565b600060208284031215611ae057600080fd5b611ae982611ab2565b9392505050565b6020808252825182820181905260009190848201906040850190845b81811015611b315783516001600160a01b031683529284019291840191600101611b0c565b50909695505050505050565b634e487b7160e01b600052604160045260246000fd5b604051601f8201601f1916810167ffffffffffffffff81118282101715611b7c57611b7c611b3d565b604052919050565b600067ffffffffffffffff821115611b9e57611b9e611b3d565b50601f01601f191660200190565b600060208284031215611bbe57600080fd5b813567ffffffffffffffff811115611bd557600080fd5b8201601f81018413611be657600080fd5b8035611bf9611bf482611b84565b611b53565b818152856020838501011115611c0e57600080fd5b81602084016020830137600091810160200191909152949350505050565b60008060408385031215611c3f57600080fd5b611c4883611ab2565b9150611c5660208401611ab2565b90509250929050565b6000610120820190508251151582526020830151602083015260408301516040830152606083015160608301526080830151608083015260a083015160a083015260c0830151151560c083015260e0830151611cbf60e084018215159052565b50610100928301511515919092015290565b600080600080600060a08688031215611ce957600080fd5b611cf286611ab2565b97602087013597506040870135966060810135965060800135945092505050565b600067ffffffffffffffff821115611d2d57611d2d611b3d565b5060051b60200190565b8035600b81900b8114611ac957600080fd5b600082601f830112611d5a57600080fd5b81356020611d6a611bf483611d13565b82815260059290921b84018101918181019086841115611d8957600080fd5b8286015b84811015611dab57611d9e81611d37565b8352918301918301611d8d565b509695505050505050565b60008060408385031215611dc957600080fd5b823567ffffffffffffffff80821115611de157600080fd5b818501915085601f830112611df557600080fd5b81356020611e05611bf483611d13565b82815260059290921b84018101918181019089841115611e2457600080fd5b948201945b83861015611e4957611e3a86611ab2565b82529482019490820190611e29565b96505086013592505080821115611e5f57600080fd5b50611e6c85828601611d49565b9150509250929050565b60008060408385031215611e8957600080fd5b611e9283611ab2565b946020939093013593505050565b81516001600160a01b03168152602080830151151590820152604080830151151590820152606080830151151590820152608080830151610100830191611eea9084018215159052565b5060a083015160a083015260c083015160c083015260e083015160e083015292915050565b600060208284031215611f2157600080fd5b813560ff81168114611ae957600080fd5b60008060408385031215611f4557600080fd5b611f4e83611ab2565b9150611c5660208401611d37565b600081518084526020808501945080840160005b83811015611f8f578151600b0b87529582019590820190600101611f70565b509495945050505050565b60208082528251151582820152828101516060604084015280516080840181905260009291820190839060a08601905b80831015611ff35783516001600160a01b03168252928401926001929092019190840190611fca565b506040870151868203601f1901606088015293506120118185611f5c565b979650505050505050565b60008060006060848603121561203157600080fd5b61203a84611ab2565b92506020840135915061204f60408501611ab2565b90509250925092565b634e487b7160e01b600052603260045260246000fd5b634e487b7160e01b600052601160045260246000fd5b6000600182016120965761209661206e565b5060010190565b6020808252818101527f4f776e61626c653a2063616c6c6572206973206e6f7420746865206f776e6572604082015260600190565b600082198211156120e5576120e561206e565b500190565b6000602082840312156120fc57600080fd5b81518015158114611ae957600080fd5b60008261212957634e487b7160e01b600052601260045260246000fd5b500490565b60005b83811015612149578181015183820152602001612131565b83811115612158576000848401525b50505050565b6000815180845261217681602086016020860161212e565b601f01601f19169290920160200192915050565b6001600160a01b03858116825284166020820152600b83900b60408201526080606082018190526000906121c09083018461215e565b9695505050505050565b6001600160a01b03831681526060602082018190526000906121ee9083018461215e565b8281036040938401526002815261060f60f31b6020820152919091019392505050565b60006020828403121561222357600080fd5b815167ffffffffffffffff81111561223a57600080fd5b8201601f8101841361224b57600080fd5b8051612259611bf482611b84565b81815285602083850101111561226e57600080fd5b6114d382602083016020860161212e565b6001600160a01b0385811682528481166020830152831660408201526080606082018190526000906121c09083018461215e56fea2646970667358221220041f8ae8403d717080d182d10ad2d715c7bd8f27d0aeb9d01fc8895364f2820764736f6c634300080d0033",
  "bytecodeSha1": "cbe126912eec777998dfdf03ab9b9cd7cee6a02c",
  "compiler": {
    "evm_version": "istanbul",
    "optimizer": {
      "enabled": true,
      "runs": 200
    },
    "version": "0.8.13+commit.abaa5c0e"
  },
  "contractName": "TrustCFA",
  "language": "Solidity",
  "natspec": {
    "kind": "dev",
    "methods": {
      "_addemployee(address,uint256,uint256,uint256,uint256)": {
        "details": "only callable by an active employer",
        "notice": "add an employer to the platform",
        "params": {
          "_employeeAddress": ": address of the employer",
          "_paymentInterval": ": the interval to which the employee receives the pay",
          "_salary": ": the employee salary"
        }
      },
      "_createCompany(uint8)": {
        "details": "only callable by the contract admin",
        "notice": "add a compny to the platform",
        "params": {
          "_payType": ": the type of payment the company gives ie. Installments or stream"
        }
      },
      "owner()": {
        "details": "Returns the address of the current owner."
      },
      "renounceOwnership()": {
        "details": "Leaves the contract without owner. It will not be possible to call `onlyOwner` functions anymore. Can only be called by the current owner. NOTE: Renouncing ownership will leave the contract without an owner, thereby removing any functionality that is only available to the owner."
      },
      "transferOwnership(address)": {
        "details": "Transfers ownership of the contract to a new account (`newOwner`). Can only be called by the current owner."
      },
      "viewCompanyInfo(address)": {
        "notice": "get an employer's infor",
        "params": {
          "_company": ": employee address"
        }
      },
      "viewEmployeeInfo(address,address)": {
        "notice": "get an employee's infor",
        "params": {
          "_employee": ": employee address"
        }
      }
    },
    "version": 1
  },
  "opcodes": "PUSH1 0x80 PUSH1 0x40 MSTORE CALLVALUE DUP1 ISZERO PUSH2 0x10 JUMPI PUSH1 0x0 DUP1 REVERT JUMPDEST POP PUSH1 0x4 CALLDATASIZE LT PUSH2 0x1CE JUMPI PUSH1 0x0 CALLDATALOAD PUSH1 0xE0 SHR DUP1 PUSH4 0xA2BAE4AF GT PUSH2 0x104 JUMPI DUP1 PUSH4 0xDE64815C GT PUSH2 0xA2 JUMPI DUP1 PUSH4 0xF97F266B GT PUSH2 0x71 JUMPI DUP1 PUSH4 0xF97F266B EQ PUSH2 0x6E1 JUMPI DUP1 PUSH4 0xFCB83575 EQ PUSH2 0x701 JUMPI DUP1 PUSH4 0xFDA9D6C5 EQ PUSH2 0x732 JUMPI DUP1 PUSH4 0xFF4B39AE EQ PUSH2 0x745 JUMPI PUSH1 0x0 DUP1 REVERT JUMPDEST DUP1 PUSH4 0xDE64815C EQ PUSH2 0x5DF JUMPI DUP1 PUSH4 0xE3F20180 EQ PUSH2 0x605 JUMPI DUP1 PUSH4 0xEDE4668C EQ PUSH2 0x6BB JUMPI DUP1 PUSH4 0xF2FDE38B EQ PUSH2 0x6CE JUMPI PUSH1 0x0 DUP1 REVERT JUMPDEST DUP1 PUSH4 0xD0E8BFCC GT PUSH2 0xDE JUMPI DUP1 PUSH4 0xD0E8BFCC EQ PUSH2 0x4CD JUMPI DUP1 PUSH4 0xD108177A EQ PUSH2 0x4E0 JUMPI DUP1 PUSH4 0xD8D79700 EQ PUSH2 0x5C4 JUMPI DUP1 PUSH4 0xDE4B9E93 EQ PUSH2 0x5CC JUMPI PUSH1 0x0 DUP1 REVERT JUMPDEST DUP1 PUSH4 0xA2BAE4AF EQ PUSH2 0x489 JUMPI DUP1 PUSH4 0xA6D6F37F EQ PUSH2 0x491 JUMPI DUP1 PUSH4 0xD0C68A4C EQ PUSH2 0x4A4 JUMPI PUSH1 0x0 DUP1 REVERT JUMPDEST DUP1 PUSH4 0x8B54E09D GT PUSH2 0x171 JUMPI DUP1 PUSH4 0x98508116 GT PUSH2 0x14B JUMPI DUP1 PUSH4 0x98508116 EQ PUSH2 0x351 JUMPI DUP1 PUSH4 0x99A8906A EQ PUSH2 0x364 JUMPI DUP1 PUSH4 0x9D5800CE EQ PUSH2 0x377 JUMPI DUP1 PUSH4 0x9EEA3EDE EQ PUSH2 0x469 JUMPI PUSH1 0x0 DUP1 REVERT JUMPDEST DUP1 PUSH4 0x8B54E09D EQ PUSH2 0x2D6 JUMPI DUP1 PUSH4 0x8BE1E996 EQ PUSH2 0x314 JUMPI DUP1 PUSH4 0x8DA5CB5B EQ PUSH2 0x340 JUMPI PUSH1 0x0 DUP1 REVERT JUMPDEST DUP1 PUSH4 0x1C5145A8 GT PUSH2 0x1AD JUMPI DUP1 PUSH4 0x1C5145A8 EQ PUSH2 0x269 JUMPI DUP1 PUSH4 0x70480275 EQ PUSH2 0x289 JUMPI DUP1 PUSH4 0x715018A6 EQ PUSH2 0x2BB JUMPI DUP1 PUSH4 0x724E60EF EQ PUSH2 0x2C3 JUMPI PUSH1 0x0 DUP1 REVERT JUMPDEST DUP1 PUSH3 0x776919 EQ PUSH2 0x1D3 JUMPI DUP1 PUSH4 0xEF4790A EQ PUSH2 0x1FC JUMPI DUP1 PUSH4 0x126D7B92 EQ PUSH2 0x248 JUMPI JUMPDEST PUSH1 0x0 DUP1 REVERT JUMPDEST PUSH2 0x1E6 PUSH2 0x1E1 CALLDATASIZE PUSH1 0x4 PUSH2 0x1ACE JUMP JUMPDEST PUSH2 0x758 JUMP JUMPDEST PUSH1 0x40 MLOAD PUSH2 0x1F3 SWAP2 SWAP1 PUSH2 0x1AF0 JUMP JUMPDEST PUSH1 0x40 MLOAD DUP1 SWAP2 SUB SWAP1 RETURN JUMPDEST PUSH2 0x230 PUSH2 0x20A CALLDATASIZE PUSH1 0x4 PUSH2 0x1BAC JUMP JUMPDEST DUP1 MLOAD PUSH1 0x20 DUP2 DUP4 ADD DUP2 ADD DUP1 MLOAD PUSH1 0x5 DUP3 MSTORE SWAP3 DUP3 ADD SWAP2 SWAP1 SWAP4 ADD KECCAK256 SWAP2 MSTORE SLOAD PUSH1 0x1 PUSH1 0x1 PUSH1 0xA0 SHL SUB AND DUP2 JUMP JUMPDEST PUSH1 0x40 MLOAD PUSH1 0x1 PUSH1 0x1 PUSH1 0xA0 SHL SUB SWAP1 SWAP2 AND DUP2 MSTORE PUSH1 0x20 ADD PUSH2 0x1F3 JUMP JUMPDEST PUSH2 0x25B PUSH2 0x256 CALLDATASIZE PUSH1 0x4 PUSH2 0x1ACE JUMP JUMPDEST PUSH2 0x7CE JUMP JUMPDEST PUSH1 0x40 MLOAD SWAP1 DUP2 MSTORE PUSH1 0x20 ADD PUSH2 0x1F3 JUMP JUMPDEST PUSH2 0x27C PUSH2 0x277 CALLDATASIZE PUSH1 0x4 PUSH2 0x1C2C JUMP JUMPDEST PUSH2 0x84D JUMP JUMPDEST PUSH1 0x40 MLOAD PUSH2 0x1F3 SWAP2 SWAP1 PUSH2 0x1C5F JUMP JUMPDEST PUSH2 0x2B9 PUSH2 0x297 CALLDATASIZE PUSH1 0x4 PUSH2 0x1ACE JUMP JUMPDEST PUSH1 0xF DUP1 SLOAD PUSH1 0x1 PUSH1 0x1 PUSH1 0xA0 SHL SUB NOT AND PUSH1 0x1 PUSH1 0x1 PUSH1 0xA0 SHL SUB SWAP3 SWAP1 SWAP3 AND SWAP2 SWAP1 SWAP2 OR SWAP1 SSTORE JUMP JUMPDEST STOP JUMPDEST PUSH2 0x2B9 PUSH2 0x947 JUMP JUMPDEST PUSH2 0x2B9 PUSH2 0x2D1 CALLDATASIZE PUSH1 0x4 PUSH2 0x1CD1 JUMP JUMPDEST PUSH2 0x986 JUMP JUMPDEST PUSH2 0x304 PUSH2 0x2E4 CALLDATASIZE PUSH1 0x4 PUSH2 0x1ACE JUMP JUMPDEST PUSH1 0x1 PUSH1 0x1 PUSH1 0xA0 SHL SUB SWAP1 DUP2 AND PUSH1 0x0 SWAP1 DUP2 MSTORE PUSH1 0x8 PUSH1 0x20 MSTORE PUSH1 0x40 SWAP1 KECCAK256 SLOAD AND ISZERO ISZERO SWAP1 JUMP JUMPDEST PUSH1 0x40 MLOAD SWAP1 ISZERO ISZERO DUP2 MSTORE PUSH1 0x20 ADD PUSH2 0x1F3 JUMP JUMPDEST PUSH2 0x25B PUSH2 0x322 CALLDATASIZE PUSH1 0x4 PUSH2 0x1ACE JUMP JUMPDEST PUSH1 0x1 PUSH1 0x1 PUSH1 0xA0 SHL SUB AND PUSH1 0x0 SWAP1 DUP2 MSTORE PUSH1 0x8 PUSH1 0x20 MSTORE PUSH1 0x40 SWAP1 KECCAK256 PUSH1 0x1 ADD SLOAD SWAP1 JUMP JUMPDEST PUSH1 0x0 SLOAD PUSH1 0x1 PUSH1 0x1 PUSH1 0xA0 SHL SUB AND PUSH2 0x230 JUMP JUMPDEST PUSH2 0x2B9 PUSH2 0x35F CALLDATASIZE PUSH1 0x4 PUSH2 0x1DB6 JUMP JUMPDEST PUSH2 0xE31 JUMP JUMPDEST PUSH2 0x230 PUSH2 0x372 CALLDATASIZE PUSH1 0x4 PUSH2 0x1E76 JUMP JUMPDEST PUSH2 0xFDB JUMP JUMPDEST PUSH2 0x45C PUSH2 0x385 CALLDATASIZE PUSH1 0x4 PUSH2 0x1ACE JUMP JUMPDEST PUSH1 0x40 DUP1 MLOAD PUSH2 0x100 DUP2 ADD DUP3 MSTORE PUSH1 0x0 DUP1 DUP3 MSTORE PUSH1 0x20 DUP3 ADD DUP2 SWAP1 MSTORE SWAP2 DUP2 ADD DUP3 SWAP1 MSTORE PUSH1 0x60 DUP2 ADD DUP3 SWAP1 MSTORE PUSH1 0x80 DUP2 ADD DUP3 SWAP1 MSTORE PUSH1 0xA0 DUP2 ADD DUP3 SWAP1 MSTORE PUSH1 0xC0 DUP2 ADD DUP3 SWAP1 MSTORE PUSH1 0xE0 DUP2 ADD SWAP2 SWAP1 SWAP2 MSTORE POP PUSH1 0x1 PUSH1 0x1 PUSH1 0xA0 SHL SUB SWAP1 DUP2 AND PUSH1 0x0 SWAP1 DUP2 MSTORE PUSH1 0x8 PUSH1 0x20 SWAP1 DUP2 MSTORE PUSH1 0x40 SWAP2 DUP3 SWAP1 KECCAK256 DUP3 MLOAD PUSH2 0x100 DUP2 ADD DUP5 MSTORE DUP2 SLOAD SWAP5 DUP6 AND DUP2 MSTORE PUSH1 0xFF PUSH1 0x1 PUSH1 0xA0 SHL DUP7 DIV DUP2 AND ISZERO ISZERO SWAP4 DUP3 ADD SWAP4 SWAP1 SWAP4 MSTORE PUSH1 0x1 PUSH1 0xA8 SHL DUP6 DIV DUP4 AND ISZERO ISZERO SWAP4 DUP2 ADD SWAP4 SWAP1 SWAP4 MSTORE PUSH1 0x1 PUSH1 0xB0 SHL DUP5 DIV DUP3 AND ISZERO ISZERO PUSH1 0x60 DUP5 ADD MSTORE PUSH1 0x1 PUSH1 0xB8 SHL SWAP1 SWAP4 DIV AND ISZERO ISZERO PUSH1 0x80 DUP3 ADD MSTORE PUSH1 0x1 DUP3 ADD SLOAD PUSH1 0xA0 DUP3 ADD MSTORE PUSH1 0x2 DUP3 ADD SLOAD PUSH1 0xC0 DUP3 ADD MSTORE PUSH1 0x3 SWAP1 SWAP2 ADD SLOAD PUSH1 0xE0 DUP3 ADD MSTORE SWAP1 JUMP JUMPDEST PUSH1 0x40 MLOAD PUSH2 0x1F3 SWAP2 SWAP1 PUSH2 0x1EA0 JUMP JUMPDEST PUSH2 0x25B PUSH2 0x477 CALLDATASIZE PUSH1 0x4 PUSH2 0x1ACE JUMP JUMPDEST PUSH1 0xD PUSH1 0x20 MSTORE PUSH1 0x0 SWAP1 DUP2 MSTORE PUSH1 0x40 SWAP1 KECCAK256 SLOAD DUP2 JUMP JUMPDEST PUSH1 0xB SLOAD PUSH2 0x25B JUMP JUMPDEST PUSH2 0x2B9 PUSH2 0x49F CALLDATASIZE PUSH1 0x4 PUSH2 0x1F0F JUMP JUMPDEST PUSH2 0x1013 JUMP JUMPDEST PUSH2 0x25B PUSH2 0x4B2 CALLDATASIZE PUSH1 0x4 PUSH2 0x1ACE JUMP JUMPDEST PUSH1 0x1 PUSH1 0x1 PUSH1 0xA0 SHL SUB AND PUSH1 0x0 SWAP1 DUP2 MSTORE PUSH1 0x7 PUSH1 0x20 MSTORE PUSH1 0x40 SWAP1 KECCAK256 SLOAD SWAP1 JUMP JUMPDEST PUSH2 0x2B9 PUSH2 0x4DB CALLDATASIZE PUSH1 0x4 PUSH2 0x1F32 JUMP JUMPDEST PUSH2 0x12BC JUMP JUMPDEST PUSH2 0x2B9 PUSH2 0x4EE CALLDATASIZE PUSH1 0x4 PUSH2 0x1ACE JUMP JUMPDEST PUSH1 0x40 DUP1 MLOAD PUSH2 0x120 DUP2 ADD DUP3 MSTORE PUSH1 0x0 DUP1 DUP3 MSTORE PUSH1 0x20 DUP1 DUP4 ADD DUP3 DUP2 MSTORE DUP4 DUP6 ADD DUP4 DUP2 MSTORE PUSH1 0x60 DUP6 ADD DUP5 DUP2 MSTORE PUSH1 0x80 DUP7 ADD DUP6 DUP2 MSTORE PUSH1 0xA0 DUP8 ADD DUP7 DUP2 MSTORE PUSH1 0xC0 DUP9 ADD DUP8 DUP2 MSTORE PUSH1 0xE0 DUP10 ADD DUP9 DUP2 MSTORE PUSH2 0x100 DUP1 DUP12 ADD DUP11 DUP2 MSTORE CALLER DUP12 MSTORE PUSH1 0xE DUP11 MSTORE DUP13 DUP12 KECCAK256 PUSH1 0x1 PUSH1 0x1 PUSH1 0xA0 SHL SUB SWAP15 SWAP1 SWAP15 AND DUP12 MSTORE SWAP13 SWAP1 SWAP9 MSTORE SWAP10 SWAP1 SWAP8 KECCAK256 SWAP8 MLOAD DUP9 SLOAD PUSH1 0xFF NOT AND SWAP1 ISZERO ISZERO OR DUP9 SSTORE SWAP4 MLOAD PUSH1 0x1 DUP9 ADD SSTORE SWAP2 MLOAD PUSH1 0x2 DUP8 ADD SSTORE MLOAD PUSH1 0x3 DUP7 ADD SSTORE MLOAD PUSH1 0x4 DUP6 ADD SSTORE MLOAD PUSH1 0x5 DUP5 ADD SSTORE SWAP1 MLOAD PUSH1 0x6 SWAP1 SWAP3 ADD DUP1 SLOAD SWAP4 MLOAD SWAP5 MLOAD PUSH2 0xFFFF NOT SWAP1 SWAP5 AND SWAP3 ISZERO ISZERO PUSH2 0xFF00 NOT AND SWAP3 SWAP1 SWAP3 OR SWAP4 ISZERO ISZERO MUL SWAP3 SWAP1 SWAP3 OR PUSH3 0xFF0000 NOT AND PUSH3 0x10000 SWAP2 ISZERO ISZERO SWAP2 SWAP1 SWAP2 MUL OR SWAP1 SSTORE JUMP JUMPDEST PUSH2 0x2B9 PUSH2 0x12CA JUMP JUMPDEST PUSH2 0x2B9 PUSH2 0x5DA CALLDATASIZE PUSH1 0x4 PUSH2 0x1ACE JUMP JUMPDEST PUSH2 0x148C JUMP JUMPDEST PUSH2 0x5F2 PUSH2 0x5ED CALLDATASIZE PUSH1 0x4 PUSH2 0x1C2C JUMP JUMPDEST PUSH2 0x1496 JUMP JUMPDEST PUSH1 0x40 MLOAD PUSH1 0xB SWAP2 SWAP1 SWAP2 SIGNEXTEND DUP2 MSTORE PUSH1 0x20 ADD PUSH2 0x1F3 JUMP JUMPDEST PUSH2 0x66E PUSH2 0x613 CALLDATASIZE PUSH1 0x4 PUSH2 0x1ACE JUMP JUMPDEST PUSH1 0x8 PUSH1 0x20 MSTORE PUSH1 0x0 SWAP1 DUP2 MSTORE PUSH1 0x40 SWAP1 KECCAK256 DUP1 SLOAD PUSH1 0x1 DUP3 ADD SLOAD PUSH1 0x2 DUP4 ADD SLOAD PUSH1 0x3 SWAP1 SWAP4 ADD SLOAD PUSH1 0x1 PUSH1 0x1 PUSH1 0xA0 SHL SUB DUP4 AND SWAP4 PUSH1 0xFF PUSH1 0x1 PUSH1 0xA0 SHL DUP6 DIV DUP2 AND SWAP5 PUSH1 0x1 PUSH1 0xA8 SHL DUP2 DIV DUP3 AND SWAP5 PUSH1 0x1 PUSH1 0xB0 SHL DUP3 DIV DUP4 AND SWAP5 PUSH1 0x1 PUSH1 0xB8 SHL SWAP1 SWAP3 DIV SWAP1 SWAP3 AND SWAP3 SWAP1 DUP9 JUMP JUMPDEST PUSH1 0x40 DUP1 MLOAD PUSH1 0x1 PUSH1 0x1 PUSH1 0xA0 SHL SUB SWAP1 SWAP10 AND DUP10 MSTORE SWAP7 ISZERO ISZERO PUSH1 0x20 DUP10 ADD MSTORE SWAP5 ISZERO ISZERO SWAP6 DUP8 ADD SWAP6 SWAP1 SWAP6 MSTORE SWAP2 ISZERO ISZERO PUSH1 0x60 DUP7 ADD MSTORE ISZERO ISZERO PUSH1 0x80 DUP6 ADD MSTORE PUSH1 0xA0 DUP5 ADD MSTORE PUSH1 0xC0 DUP4 ADD SWAP2 SWAP1 SWAP2 MSTORE PUSH1 0xE0 DUP3 ADD MSTORE PUSH2 0x100 ADD PUSH2 0x1F3 JUMP JUMPDEST PUSH2 0x2B9 PUSH2 0x6C9 CALLDATASIZE PUSH1 0x4 PUSH2 0x1ACE JUMP JUMPDEST PUSH2 0x14DC JUMP JUMPDEST PUSH2 0x2B9 PUSH2 0x6DC CALLDATASIZE PUSH1 0x4 PUSH2 0x1ACE JUMP JUMPDEST PUSH2 0x1528 JUMP JUMPDEST PUSH2 0x6F4 PUSH2 0x6EF CALLDATASIZE PUSH1 0x4 PUSH2 0x1ACE JUMP JUMPDEST PUSH2 0x15C0 JUMP JUMPDEST PUSH1 0x40 MLOAD PUSH2 0x1F3 SWAP2 SWAP1 PUSH2 0x1F9A JUMP JUMPDEST PUSH2 0x25B PUSH2 0x70F CALLDATASIZE PUSH1 0x4 PUSH2 0x201C JUMP JUMPDEST PUSH1 0x6 PUSH1 0x20 SWAP1 DUP2 MSTORE PUSH1 0x0 SWAP4 DUP5 MSTORE PUSH1 0x40 DUP1 DUP6 KECCAK256 DUP3 MSTORE SWAP3 DUP5 MSTORE DUP3 DUP5 KECCAK256 SWAP1 MSTORE DUP3 MSTORE SWAP1 KECCAK256 SLOAD DUP2 JUMP JUMPDEST PUSH2 0x2B9 PUSH2 0x740 CALLDATASIZE PUSH1 0x4 PUSH2 0x1F32 JUMP JUMPDEST PUSH2 0x16F6 JUMP JUMPDEST PUSH2 0x1E6 PUSH2 0x753 CALLDATASIZE PUSH1 0x4 PUSH2 0x1ACE JUMP JUMPDEST PUSH2 0x1700 JUMP JUMPDEST PUSH1 0x1 PUSH1 0x1 PUSH1 0xA0 SHL SUB DUP2 AND PUSH1 0x0 SWAP1 DUP2 MSTORE PUSH1 0x7 PUSH1 0x20 SWAP1 DUP2 MSTORE PUSH1 0x40 SWAP2 DUP3 SWAP1 KECCAK256 DUP1 SLOAD DUP4 MLOAD DUP2 DUP5 MUL DUP2 ADD DUP5 ADD SWAP1 SWAP5 MSTORE DUP1 DUP5 MSTORE PUSH1 0x60 SWAP4 SWAP3 DUP4 ADD DUP3 DUP3 DUP1 ISZERO PUSH2 0x7C2 JUMPI PUSH1 0x20 MUL DUP3 ADD SWAP2 SWAP1 PUSH1 0x0 MSTORE PUSH1 0x20 PUSH1 0x0 KECCAK256 SWAP1 JUMPDEST DUP2 SLOAD PUSH1 0x1 PUSH1 0x1 PUSH1 0xA0 SHL SUB AND DUP2 MSTORE PUSH1 0x1 SWAP1 SWAP2 ADD SWAP1 PUSH1 0x20 ADD DUP1 DUP4 GT PUSH2 0x7A4 JUMPI JUMPDEST POP POP POP POP POP SWAP1 POP SWAP2 SWAP1 POP JUMP JUMPDEST CALLER PUSH1 0x0 SWAP1 DUP2 MSTORE PUSH1 0x7 PUSH1 0x20 MSTORE PUSH1 0x40 DUP2 KECCAK256 SLOAD PUSH1 0x0 JUMPDEST DUP2 DUP2 GT ISZERO PUSH2 0x846 JUMPI CALLER PUSH1 0x0 SWAP1 DUP2 MSTORE PUSH1 0x7 PUSH1 0x20 MSTORE PUSH1 0x40 SWAP1 KECCAK256 DUP1 SLOAD PUSH1 0x1 PUSH1 0x1 PUSH1 0xA0 SHL SUB DUP7 AND SWAP2 SWAP1 DUP4 SWAP1 DUP2 LT PUSH2 0x816 JUMPI PUSH2 0x816 PUSH2 0x2058 JUMP JUMPDEST PUSH1 0x0 SWAP2 DUP3 MSTORE PUSH1 0x20 SWAP1 SWAP2 KECCAK256 ADD SLOAD PUSH1 0x1 PUSH1 0x1 PUSH1 0xA0 SHL SUB AND SUB PUSH2 0x834 JUMPI DUP1 SWAP3 POP JUMPDEST DUP1 PUSH2 0x83E DUP2 PUSH2 0x2084 JUMP JUMPDEST SWAP2 POP POP PUSH2 0x7E1 JUMP JUMPDEST POP POP SWAP2 SWAP1 POP JUMP JUMPDEST PUSH2 0x8A4 PUSH1 0x40 MLOAD DUP1 PUSH2 0x120 ADD PUSH1 0x40 MSTORE DUP1 PUSH1 0x0 ISZERO ISZERO DUP2 MSTORE PUSH1 0x20 ADD PUSH1 0x0 DUP2 MSTORE PUSH1 0x20 ADD PUSH1 0x0 DUP2 MSTORE PUSH1 0x20 ADD PUSH1 0x0 DUP2 MSTORE PUSH1 0x20 ADD PUSH1 0x0 DUP2 MSTORE PUSH1 0x20 ADD PUSH1 0x0 DUP2 MSTORE PUSH1 0x20 ADD PUSH1 0x0 ISZERO ISZERO DUP2 MSTORE PUSH1 0x20 ADD PUSH1 0x0 ISZERO ISZERO DUP2 MSTORE PUSH1 0x20 ADD PUSH1 0x0 ISZERO ISZERO DUP2 MSTORE POP SWAP1 JUMP JUMPDEST POP PUSH1 0x1 PUSH1 0x1 PUSH1 0xA0 SHL SUB SWAP2 DUP3 AND PUSH1 0x0 SWAP1 DUP2 MSTORE PUSH1 0xE PUSH1 0x20 SWAP1 DUP2 MSTORE PUSH1 0x40 DUP1 DUP4 KECCAK256 SWAP4 SWAP1 SWAP5 AND DUP3 MSTORE SWAP2 DUP3 MSTORE DUP3 SWAP1 KECCAK256 DUP3 MLOAD PUSH2 0x120 DUP2 ADD DUP5 MSTORE DUP2 SLOAD PUSH1 0xFF SWAP1 DUP2 AND ISZERO ISZERO DUP3 MSTORE PUSH1 0x1 DUP4 ADD SLOAD SWAP4 DUP3 ADD SWAP4 SWAP1 SWAP4 MSTORE PUSH1 0x2 DUP3 ADD SLOAD SWAP4 DUP2 ADD SWAP4 SWAP1 SWAP4 MSTORE PUSH1 0x3 DUP2 ADD SLOAD PUSH1 0x60 DUP5 ADD MSTORE PUSH1 0x4 DUP2 ADD SLOAD PUSH1 0x80 DUP5 ADD MSTORE PUSH1 0x5 DUP2 ADD SLOAD PUSH1 0xA0 DUP5 ADD MSTORE PUSH1 0x6 ADD SLOAD DUP1 DUP3 AND ISZERO ISZERO PUSH1 0xC0 DUP5 ADD MSTORE PUSH2 0x100 DUP1 DUP3 DIV DUP4 AND ISZERO ISZERO PUSH1 0xE0 DUP6 ADD MSTORE PUSH3 0x10000 SWAP1 SWAP2 DIV SWAP1 SWAP2 AND ISZERO ISZERO SWAP1 DUP3 ADD MSTORE SWAP1 JUMP JUMPDEST PUSH1 0x0 SLOAD PUSH1 0x1 PUSH1 0x1 PUSH1 0xA0 SHL SUB AND CALLER EQ PUSH2 0x97A JUMPI PUSH1 0x40 MLOAD PUSH3 0x461BCD PUSH1 0xE5 SHL DUP2 MSTORE PUSH1 0x4 ADD PUSH2 0x971 SWAP1 PUSH2 0x209D JUMP JUMPDEST PUSH1 0x40 MLOAD DUP1 SWAP2 SUB SWAP1 REVERT JUMPDEST PUSH2 0x984 PUSH1 0x0 PUSH2 0x1774 JUMP JUMPDEST JUMP JUMPDEST CALLER PUSH1 0x0 SWAP1 DUP2 MSTORE PUSH1 0x8 PUSH1 0x20 MSTORE PUSH1 0x40 SWAP1 KECCAK256 DUP1 SLOAD PUSH1 0x1 PUSH1 0xA0 SHL SWAP1 DIV PUSH1 0xFF AND ISZERO ISZERO PUSH1 0x1 EQ PUSH2 0x9DF JUMPI PUSH1 0x40 MLOAD PUSH3 0x461BCD PUSH1 0xE5 SHL DUP2 MSTORE PUSH1 0x20 PUSH1 0x4 DUP3 ADD MSTORE PUSH1 0xA PUSH1 0x24 DUP3 ADD MSTORE PUSH10 0x6E6F7420616374697665 PUSH1 0xB0 SHL PUSH1 0x44 DUP3 ADD MSTORE PUSH1 0x64 ADD PUSH2 0x971 JUMP JUMPDEST DUP2 PUSH1 0x0 SUB PUSH2 0xBE8 JUMPI PUSH1 0x40 MLOAD DUP1 PUSH2 0x120 ADD PUSH1 0x40 MSTORE DUP1 PUSH1 0x0 ISZERO ISZERO DUP2 MSTORE PUSH1 0x20 ADD DUP7 DUP2 MSTORE PUSH1 0x20 ADD TIMESTAMP DUP2 MSTORE PUSH1 0x20 ADD DUP6 DUP2 MSTORE PUSH1 0x20 ADD DUP5 DUP2 MSTORE PUSH1 0x20 ADD PUSH1 0x0 DUP2 MSTORE PUSH1 0x20 ADD PUSH1 0x1 ISZERO ISZERO DUP2 MSTORE PUSH1 0x20 ADD PUSH1 0x0 ISZERO ISZERO DUP2 MSTORE PUSH1 0x20 ADD PUSH1 0x0 ISZERO ISZERO DUP2 MSTORE POP PUSH1 0xE PUSH1 0x0 CALLER PUSH1 0x1 PUSH1 0x1 PUSH1 0xA0 SHL SUB AND PUSH1 0x1 PUSH1 0x1 PUSH1 0xA0 SHL SUB AND DUP2 MSTORE PUSH1 0x20 ADD SWAP1 DUP2 MSTORE PUSH1 0x20 ADD PUSH1 0x0 KECCAK256 PUSH1 0x0 DUP9 PUSH1 0x1 PUSH1 0x1 PUSH1 0xA0 SHL SUB AND PUSH1 0x1 PUSH1 0x1 PUSH1 0xA0 SHL SUB AND DUP2 MSTORE PUSH1 0x20 ADD SWAP1 DUP2 MSTORE PUSH1 0x20 ADD PUSH1 0x0 KECCAK256 PUSH1 0x0 DUP3 ADD MLOAD DUP2 PUSH1 0x0 ADD PUSH1 0x0 PUSH2 0x100 EXP DUP2 SLOAD DUP2 PUSH1 0xFF MUL NOT AND SWAP1 DUP4 ISZERO ISZERO MUL OR SWAP1 SSTORE POP PUSH1 0x20 DUP3 ADD MLOAD DUP2 PUSH1 0x1 ADD SSTORE PUSH1 0x40 DUP3 ADD MLOAD DUP2 PUSH1 0x2 ADD SSTORE PUSH1 0x60 DUP3 ADD MLOAD DUP2 PUSH1 0x3 ADD SSTORE PUSH1 0x80 DUP3 ADD MLOAD DUP2 PUSH1 0x4 ADD SSTORE PUSH1 0xA0 DUP3 ADD MLOAD DUP2 PUSH1 0x5 ADD SSTORE PUSH1 0xC0 DUP3 ADD MLOAD DUP2 PUSH1 0x6 ADD PUSH1 0x0 PUSH2 0x100 EXP DUP2 SLOAD DUP2 PUSH1 0xFF MUL NOT AND SWAP1 DUP4 ISZERO ISZERO MUL OR SWAP1 SSTORE POP PUSH1 0xE0 DUP3 ADD MLOAD DUP2 PUSH1 0x6 ADD PUSH1 0x1 PUSH2 0x100 EXP DUP2 SLOAD DUP2 PUSH1 0xFF MUL NOT AND SWAP1 DUP4 ISZERO ISZERO MUL OR SWAP1 SSTORE POP PUSH2 0x100 DUP3 ADD MLOAD DUP2 PUSH1 0x6 ADD PUSH1 0x2 PUSH2 0x100 EXP DUP2 SLOAD DUP2 PUSH1 0xFF MUL NOT AND SWAP1 DUP4 ISZERO ISZERO MUL OR SWAP1 SSTORE POP SWAP1 POP POP DUP5 PUSH1 0x8 PUSH1 0x0 CALLER PUSH1 0x1 PUSH1 0x1 PUSH1 0xA0 SHL SUB AND PUSH1 0x1 PUSH1 0x1 PUSH1 0xA0 SHL SUB AND DUP2 MSTORE PUSH1 0x20 ADD SWAP1 DUP2 MSTORE PUSH1 0x20 ADD PUSH1 0x0 KECCAK256 PUSH1 0x1 ADD PUSH1 0x0 DUP3 DUP3 SLOAD PUSH2 0xB6A SWAP2 SWAP1 PUSH2 0x20D2 JUMP JUMPDEST SWAP1 SWAP2 SSTORE POP POP CALLER PUSH1 0x0 SWAP1 DUP2 MSTORE PUSH1 0x7 PUSH1 0x20 SWAP1 DUP2 MSTORE PUSH1 0x40 DUP3 KECCAK256 DUP1 SLOAD PUSH1 0x1 DUP2 DUP2 ADD DUP4 SSTORE SWAP2 DUP5 MSTORE SWAP2 DUP4 KECCAK256 SWAP1 SWAP2 ADD DUP1 SLOAD PUSH1 0x1 PUSH1 0x1 PUSH1 0xA0 SHL SUB DUP11 AND PUSH1 0x1 PUSH1 0x1 PUSH1 0xA0 SHL SUB NOT SWAP2 DUP3 AND DUP2 OR SWAP1 SWAP3 SSTORE PUSH1 0xC DUP1 SLOAD SWAP4 DUP5 ADD DUP2 SSTORE SWAP1 SWAP4 MSTORE PUSH32 0xDF6966C971051C3D54EC59162606531493A51404A002842F56009D7E5CF4A8C7 SWAP1 SWAP2 ADD DUP1 SLOAD SWAP1 SWAP3 AND OR SWAP1 SSTORE JUMPDEST DUP2 PUSH1 0x1 SUB PUSH2 0xDF1 JUMPI PUSH1 0x40 MLOAD DUP1 PUSH2 0x120 ADD PUSH1 0x40 MSTORE DUP1 PUSH1 0x0 ISZERO ISZERO DUP2 MSTORE PUSH1 0x20 ADD DUP7 DUP2 MSTORE PUSH1 0x20 ADD TIMESTAMP DUP2 MSTORE PUSH1 0x20 ADD DUP6 DUP2 MSTORE PUSH1 0x20 ADD DUP5 DUP2 MSTORE PUSH1 0x20 ADD PUSH1 0x0 DUP2 MSTORE PUSH1 0x20 ADD PUSH1 0x0 ISZERO ISZERO DUP2 MSTORE PUSH1 0x20 ADD PUSH1 0x1 ISZERO ISZERO DUP2 MSTORE PUSH1 0x20 ADD PUSH1 0x0 ISZERO ISZERO DUP2 MSTORE POP PUSH1 0xE PUSH1 0x0 CALLER PUSH1 0x1 PUSH1 0x1 PUSH1 0xA0 SHL SUB AND PUSH1 0x1 PUSH1 0x1 PUSH1 0xA0 SHL SUB AND DUP2 MSTORE PUSH1 0x20 ADD SWAP1 DUP2 MSTORE PUSH1 0x20 ADD PUSH1 0x0 KECCAK256 PUSH1 0x0 DUP9 PUSH1 0x1 PUSH1 0x1 PUSH1 0xA0 SHL SUB AND PUSH1 0x1 PUSH1 0x1 PUSH1 0xA0 SHL SUB AND DUP2 MSTORE PUSH1 0x20 ADD SWAP1 DUP2 MSTORE PUSH1 0x20 ADD PUSH1 0x0 KECCAK256 PUSH1 0x0 DUP3 ADD MLOAD DUP2 PUSH1 0x0 ADD PUSH1 0x0 PUSH2 0x100 EXP DUP2 SLOAD DUP2 PUSH1 0xFF MUL NOT AND SWAP1 DUP4 ISZERO ISZERO MUL OR SWAP1 SSTORE POP PUSH1 0x20 DUP3 ADD MLOAD DUP2 PUSH1 0x1 ADD SSTORE PUSH1 0x40 DUP3 ADD MLOAD DUP2 PUSH1 0x2 ADD SSTORE PUSH1 0x60 DUP3 ADD MLOAD DUP2 PUSH1 0x3 ADD SSTORE PUSH1 0x80 DUP3 ADD MLOAD DUP2 PUSH1 0x4 ADD SSTORE PUSH1 0xA0 DUP3 ADD MLOAD DUP2 PUSH1 0x5 ADD SSTORE PUSH1 0xC0 DUP3 ADD MLOAD DUP2 PUSH1 0x6 ADD PUSH1 0x0 PUSH2 0x100 EXP DUP2 SLOAD DUP2 PUSH1 0xFF MUL NOT AND SWAP1 DUP4 ISZERO ISZERO MUL OR SWAP1 SSTORE POP PUSH1 0xE0 DUP3 ADD MLOAD DUP2 PUSH1 0x6 ADD PUSH1 0x1 PUSH2 0x100 EXP DUP2 SLOAD DUP2 PUSH1 0xFF MUL NOT AND SWAP1 DUP4 ISZERO ISZERO MUL OR SWAP1 SSTORE POP PUSH2 0x100 DUP3 ADD MLOAD DUP2 PUSH1 0x6 ADD PUSH1 0x2 PUSH2 0x100 EXP DUP2 SLOAD DUP2 PUSH1 0xFF MUL NOT AND SWAP1 DUP4 ISZERO ISZERO MUL OR SWAP1 SSTORE POP SWAP1 POP POP DUP5 PUSH1 0x8 PUSH1 0x0 CALLER PUSH1 0x1 PUSH1 0x1 PUSH1 0xA0 SHL SUB AND PUSH1 0x1 PUSH1 0x1 PUSH1 0xA0 SHL SUB AND DUP2 MSTORE PUSH1 0x20 ADD SWAP1 DUP2 MSTORE PUSH1 0x20 ADD PUSH1 0x0 KECCAK256 PUSH1 0x1 ADD PUSH1 0x0 DUP3 DUP3 SLOAD PUSH2 0xD73 SWAP2 SWAP1 PUSH2 0x20D2 JUMP JUMPDEST SWAP1 SWAP2 SSTORE POP POP CALLER PUSH1 0x0 SWAP1 DUP2 MSTORE PUSH1 0x7 PUSH1 0x20 SWAP1 DUP2 MSTORE PUSH1 0x40 DUP3 KECCAK256 DUP1 SLOAD PUSH1 0x1 DUP2 DUP2 ADD DUP4 SSTORE SWAP2 DUP5 MSTORE SWAP2 DUP4 KECCAK256 SWAP1 SWAP2 ADD DUP1 SLOAD PUSH1 0x1 PUSH1 0x1 PUSH1 0xA0 SHL SUB DUP11 AND PUSH1 0x1 PUSH1 0x1 PUSH1 0xA0 SHL SUB NOT SWAP2 DUP3 AND DUP2 OR SWAP1 SWAP3 SSTORE PUSH1 0xB DUP1 SLOAD SWAP4 DUP5 ADD DUP2 SSTORE SWAP1 SWAP4 MSTORE PUSH32 0x175B7A638427703F0DBE7BB9BBF987A2551717B34E79F33B5B1008D1FA01DB9 SWAP1 SWAP2 ADD DUP1 SLOAD SWAP1 SWAP3 AND OR SWAP1 SSTORE JUMPDEST POP POP POP PUSH1 0x1 PUSH1 0x1 PUSH1 0xA0 SHL SUB SWAP1 SWAP3 AND PUSH1 0x0 SWAP1 DUP2 MSTORE PUSH1 0xA PUSH1 0x20 SWAP1 DUP2 MSTORE PUSH1 0x40 DUP3 KECCAK256 DUP1 SLOAD PUSH1 0x1 DUP2 ADD DUP3 SSTORE SWAP1 DUP4 MSTORE SWAP2 KECCAK256 ADD DUP1 SLOAD PUSH1 0x1 PUSH1 0x1 PUSH1 0xA0 SHL SUB NOT AND CALLER OR SWAP1 SSTORE POP POP JUMP JUMPDEST CALLER PUSH1 0x0 SWAP1 DUP2 MSTORE PUSH1 0x8 PUSH1 0x20 MSTORE PUSH1 0x40 SWAP1 KECCAK256 DUP2 MLOAD DUP4 MLOAD EQ PUSH2 0xE7E JUMPI PUSH1 0x40 MLOAD PUSH3 0x461BCD PUSH1 0xE5 SHL DUP2 MSTORE PUSH1 0x20 PUSH1 0x4 DUP3 ADD MSTORE PUSH1 0xA PUSH1 0x24 DUP3 ADD MSTORE PUSH10 0x61727261797320216571 PUSH1 0xB0 SHL PUSH1 0x44 DUP3 ADD MSTORE PUSH1 0x64 ADD PUSH2 0x971 JUMP JUMPDEST DUP2 MLOAD CALLER PUSH1 0x0 SWAP1 DUP2 MSTORE PUSH1 0x7 PUSH1 0x20 MSTORE PUSH1 0x40 SWAP1 KECCAK256 SLOAD DUP1 DUP3 GT ISZERO PUSH2 0xE9D JUMPI PUSH1 0x0 DUP1 REVERT JUMPDEST PUSH1 0x0 DUP1 JUMPDEST DUP4 DUP2 LT ISZERO PUSH2 0xF39 JUMPI PUSH1 0x0 DUP8 DUP3 DUP2 MLOAD DUP2 LT PUSH2 0xEBD JUMPI PUSH2 0xEBD PUSH2 0x2058 JUMP JUMPDEST PUSH1 0x20 MUL PUSH1 0x20 ADD ADD MLOAD SWAP1 POP PUSH1 0x0 JUMPDEST DUP5 DUP2 LT ISZERO PUSH2 0xF2F JUMPI CALLER PUSH1 0x0 SWAP1 DUP2 MSTORE PUSH1 0x7 PUSH1 0x20 MSTORE PUSH1 0x40 SWAP1 KECCAK256 DUP1 SLOAD PUSH1 0x1 PUSH1 0x1 PUSH1 0xA0 SHL SUB DUP5 AND SWAP2 SWAP1 DUP4 SWAP1 DUP2 LT PUSH2 0xEFF JUMPI PUSH2 0xEFF PUSH2 0x2058 JUMP JUMPDEST PUSH1 0x0 SWAP2 DUP3 MSTORE PUSH1 0x20 SWAP1 SWAP2 KECCAK256 ADD SLOAD PUSH1 0x1 PUSH1 0x1 PUSH1 0xA0 SHL SUB AND SUB PUSH2 0xF27 JUMPI PUSH2 0xF24 PUSH1 0x1 DUP6 PUSH2 0x20D2 JUMP JUMPDEST SWAP4 POP JUMPDEST PUSH1 0x1 ADD PUSH2 0xECA JUMP JUMPDEST POP POP PUSH1 0x1 ADD PUSH2 0xEA1 JUMP JUMPDEST POP DUP3 DUP2 SUB PUSH2 0xFB7 JUMPI PUSH1 0x40 DUP1 MLOAD PUSH1 0x60 DUP2 ADD DUP3 MSTORE PUSH1 0x1 DUP1 DUP3 MSTORE PUSH1 0x20 DUP1 DUP4 ADD DUP11 DUP2 MSTORE DUP4 DUP6 ADD DUP11 SWAP1 MSTORE CALLER PUSH1 0x0 SWAP1 DUP2 MSTORE PUSH1 0x9 DUP4 MSTORE SWAP5 SWAP1 SWAP5 KECCAK256 DUP4 MLOAD DUP2 SLOAD PUSH1 0xFF NOT AND SWAP1 ISZERO ISZERO OR DUP2 SSTORE SWAP4 MLOAD DUP1 MLOAD SWAP4 SWAP5 SWAP4 PUSH2 0xF92 SWAP4 DUP6 ADD SWAP3 SWAP2 SWAP1 SWAP2 ADD SWAP1 PUSH2 0x1986 JUMP JUMPDEST POP PUSH1 0x40 DUP3 ADD MLOAD DUP1 MLOAD PUSH2 0xFAE SWAP2 PUSH1 0x2 DUP5 ADD SWAP2 PUSH1 0x20 SWAP1 SWAP2 ADD SWAP1 PUSH2 0x19EB JUMP JUMPDEST POP SWAP1 POP POP PUSH2 0xFD3 JUMP JUMPDEST PUSH1 0x40 MLOAD PUSH1 0x1 PUSH3 0xD149C3 PUSH1 0xE0 SHL SUB NOT DUP2 MSTORE PUSH1 0x4 ADD PUSH1 0x40 MLOAD DUP1 SWAP2 SUB SWAP1 REVERT JUMPDEST POP POP POP POP POP POP JUMP JUMPDEST PUSH1 0x7 PUSH1 0x20 MSTORE DUP2 PUSH1 0x0 MSTORE PUSH1 0x40 PUSH1 0x0 KECCAK256 DUP2 DUP2 SLOAD DUP2 LT PUSH2 0xFF7 JUMPI PUSH1 0x0 DUP1 REVERT JUMPDEST PUSH1 0x0 SWAP2 DUP3 MSTORE PUSH1 0x20 SWAP1 SWAP2 KECCAK256 ADD SLOAD PUSH1 0x1 PUSH1 0x1 PUSH1 0xA0 SHL SUB AND SWAP2 POP DUP3 SWAP1 POP JUMP JUMPDEST DUP1 PUSH1 0xFF AND PUSH1 0x0 SUB PUSH2 0x10FA JUMPI PUSH1 0x40 DUP1 MLOAD PUSH2 0x100 DUP2 ADD DUP3 MSTORE CALLER DUP1 DUP3 MSTORE PUSH1 0x1 PUSH1 0x20 DUP1 DUP5 ADD DUP3 DUP2 MSTORE DUP5 DUP7 ADD DUP4 DUP2 MSTORE PUSH1 0x0 PUSH1 0x60 DUP8 ADD DUP2 DUP2 MSTORE PUSH1 0x80 DUP9 ADD DUP3 DUP2 MSTORE PUSH1 0xA0 DUP10 ADD DUP4 DUP2 MSTORE PUSH1 0xC0 DUP11 ADD DUP5 DUP2 MSTORE PUSH1 0xE0 DUP12 ADD DUP6 DUP2 MSTORE SWAP10 DUP6 MSTORE PUSH1 0x8 SWAP1 SWAP8 MSTORE SWAP10 SWAP1 SWAP3 KECCAK256 SWAP8 MLOAD DUP9 SLOAD SWAP5 MLOAD SWAP4 MLOAD SWAP2 MLOAD SWAP3 MLOAD ISZERO ISZERO PUSH1 0x1 PUSH1 0xB8 SHL MUL PUSH1 0xFF PUSH1 0xB8 SHL NOT SWAP4 ISZERO ISZERO PUSH1 0x1 PUSH1 0xB0 SHL MUL PUSH1 0xFF PUSH1 0xB0 SHL NOT SWAP4 ISZERO ISZERO PUSH1 0x1 PUSH1 0xA8 SHL MUL SWAP4 SWAP1 SWAP4 AND PUSH2 0xFFFF PUSH1 0xA8 SHL NOT SWAP6 ISZERO ISZERO PUSH1 0x1 PUSH1 0xA0 SHL MUL PUSH1 0x1 PUSH1 0x1 PUSH1 0xA8 SHL SUB NOT SWAP1 SWAP8 AND PUSH1 0x1 PUSH1 0x1 PUSH1 0xA0 SHL SUB SWAP4 SWAP1 SWAP4 AND SWAP3 SWAP1 SWAP3 OR SWAP6 SWAP1 SWAP6 OR SWAP4 SWAP1 SWAP4 AND SWAP3 SWAP1 SWAP3 OR SWAP2 SWAP1 SWAP2 OR AND OR DUP5 SSTORE SWAP4 MLOAD SWAP1 DUP4 ADD SSTORE SWAP2 MLOAD PUSH1 0x2 DUP3 ADD SSTORE SWAP1 MLOAD PUSH1 0x3 SWAP1 SWAP2 ADD SSTORE JUMPDEST DUP1 PUSH1 0xFF AND PUSH1 0x1 SUB PUSH2 0x11E0 JUMPI PUSH1 0x40 DUP1 MLOAD PUSH2 0x100 DUP2 ADD DUP3 MSTORE CALLER DUP1 DUP3 MSTORE PUSH1 0x1 PUSH1 0x20 DUP1 DUP5 ADD DUP3 DUP2 MSTORE PUSH1 0x0 DUP6 DUP8 ADD DUP2 DUP2 MSTORE PUSH1 0x60 DUP8 ADD DUP6 DUP2 MSTORE PUSH1 0x80 DUP9 ADD DUP4 DUP2 MSTORE PUSH1 0xA0 DUP10 ADD DUP5 DUP2 MSTORE PUSH1 0xC0 DUP11 ADD DUP6 DUP2 MSTORE PUSH1 0xE0 DUP12 ADD DUP7 DUP2 MSTORE SWAP10 DUP7 MSTORE PUSH1 0x8 SWAP1 SWAP8 MSTORE SWAP10 SWAP1 SWAP4 KECCAK256 SWAP8 MLOAD DUP9 SLOAD SWAP5 MLOAD SWAP3 MLOAD SWAP2 MLOAD SWAP4 MLOAD ISZERO ISZERO PUSH1 0x1 PUSH1 0xB8 SHL MUL PUSH1 0xFF PUSH1 0xB8 SHL NOT SWAP5 ISZERO ISZERO PUSH1 0x1 PUSH1 0xB0 SHL MUL PUSH1 0xFF PUSH1 0xB0 SHL NOT SWAP4 ISZERO ISZERO PUSH1 0x1 PUSH1 0xA8 SHL MUL SWAP4 SWAP1 SWAP4 AND PUSH2 0xFFFF PUSH1 0xA8 SHL NOT SWAP5 ISZERO ISZERO PUSH1 0x1 PUSH1 0xA0 SHL MUL PUSH1 0x1 PUSH1 0x1 PUSH1 0xA8 SHL SUB NOT SWAP1 SWAP8 AND PUSH1 0x1 PUSH1 0x1 PUSH1 0xA0 SHL SUB SWAP4 SWAP1 SWAP4 AND SWAP3 SWAP1 SWAP3 OR SWAP6 SWAP1 SWAP6 OR SWAP3 SWAP1 SWAP3 AND SWAP2 SWAP1 SWAP2 OR OR AND OR DUP5 SSTORE SWAP4 MLOAD SWAP1 DUP4 ADD SSTORE SWAP2 MLOAD PUSH1 0x2 DUP3 ADD SSTORE SWAP1 MLOAD PUSH1 0x3 SWAP1 SWAP2 ADD SSTORE POP JUMP JUMPDEST PUSH1 0x40 DUP1 MLOAD PUSH2 0x100 DUP2 ADD DUP3 MSTORE CALLER DUP1 DUP3 MSTORE PUSH1 0x1 PUSH1 0x20 DUP1 DUP5 ADD DUP3 DUP2 MSTORE PUSH1 0x0 DUP6 DUP8 ADD DUP2 DUP2 MSTORE PUSH1 0x60 DUP8 ADD DUP3 DUP2 MSTORE PUSH1 0x80 DUP9 ADD DUP7 DUP2 MSTORE PUSH1 0xA0 DUP10 ADD DUP5 DUP2 MSTORE PUSH1 0xC0 DUP11 ADD DUP6 DUP2 MSTORE PUSH1 0xE0 DUP12 ADD DUP7 DUP2 MSTORE SWAP10 DUP7 MSTORE PUSH1 0x8 SWAP1 SWAP8 MSTORE SWAP10 SWAP1 SWAP4 KECCAK256 SWAP8 MLOAD DUP9 SLOAD SWAP5 MLOAD SWAP3 MLOAD SWAP2 MLOAD SWAP4 MLOAD ISZERO ISZERO PUSH1 0x1 PUSH1 0xB8 SHL MUL PUSH1 0xFF PUSH1 0xB8 SHL NOT SWAP5 ISZERO ISZERO PUSH1 0x1 PUSH1 0xB0 SHL MUL PUSH1 0xFF PUSH1 0xB0 SHL NOT SWAP4 ISZERO ISZERO PUSH1 0x1 PUSH1 0xA8 SHL MUL SWAP4 SWAP1 SWAP4 AND PUSH2 0xFFFF PUSH1 0xA8 SHL NOT SWAP5 ISZERO ISZERO PUSH1 0x1 PUSH1 0xA0 SHL MUL PUSH1 0x1 PUSH1 0x1 PUSH1 0xA8 SHL SUB NOT SWAP1 SWAP8 AND PUSH1 0x1 PUSH1 0x1 PUSH1 0xA0 SHL SUB SWAP4 SWAP1 SWAP4 AND SWAP3 SWAP1 SWAP3 OR SWAP6 SWAP1 SWAP6 OR SWAP3 SWAP1 SWAP3 AND SWAP2 SWAP1 SWAP2 OR OR AND OR DUP5 SSTORE SWAP4 MLOAD SWAP1 DUP4 ADD SSTORE SWAP2 MLOAD PUSH1 0x2 DUP3 ADD SSTORE SWAP1 MLOAD PUSH1 0x3 SWAP1 SWAP2 ADD SSTORE JUMPDEST POP JUMP JUMPDEST PUSH2 0x12C6 DUP3 DUP3 PUSH2 0x17C4 JUMP JUMPDEST POP POP JUMP JUMPDEST CALLER PUSH1 0x0 SWAP1 DUP2 MSTORE PUSH1 0x7 PUSH1 0x20 MSTORE PUSH1 0x40 SWAP1 KECCAK256 SLOAD DUP1 PUSH2 0x12E4 JUMPI PUSH1 0x0 DUP1 REVERT JUMPDEST PUSH1 0x3 SLOAD PUSH1 0x4 SLOAD CALLER PUSH1 0x0 DUP2 DUP2 MSTORE PUSH1 0x8 PUSH1 0x20 MSTORE PUSH1 0x40 DUP2 KECCAK256 PUSH1 0x1 ADD SLOAD SWAP1 SWAP4 PUSH1 0x1 PUSH1 0x1 PUSH1 0xA0 SHL SUB SWAP1 DUP2 AND SWAP4 PUSH4 0x23B872DD SWAP4 SWAP3 SWAP2 AND SWAP1 PUSH1 0x40 MLOAD PUSH1 0x1 PUSH1 0x1 PUSH1 0xE0 SHL SUB NOT PUSH1 0xE0 DUP7 SWAP1 SHL AND DUP2 MSTORE PUSH1 0x1 PUSH1 0x1 PUSH1 0xA0 SHL SUB SWAP4 DUP5 AND PUSH1 0x4 DUP3 ADD MSTORE SWAP3 SWAP1 SWAP2 AND PUSH1 0x24 DUP4 ADD MSTORE PUSH1 0x44 DUP3 ADD MSTORE PUSH1 0x64 ADD PUSH1 0x20 PUSH1 0x40 MLOAD DUP1 DUP4 SUB DUP2 PUSH1 0x0 DUP8 GAS CALL ISZERO DUP1 ISZERO PUSH2 0x1369 JUMPI RETURNDATASIZE PUSH1 0x0 DUP1 RETURNDATACOPY RETURNDATASIZE PUSH1 0x0 REVERT JUMPDEST POP POP POP POP PUSH1 0x40 MLOAD RETURNDATASIZE PUSH1 0x1F NOT PUSH1 0x1F DUP3 ADD AND DUP3 ADD DUP1 PUSH1 0x40 MSTORE POP DUP2 ADD SWAP1 PUSH2 0x138D SWAP2 SWAP1 PUSH2 0x20EA JUMP JUMPDEST SWAP1 POP DUP1 PUSH2 0x13CE JUMPI PUSH1 0x40 MLOAD PUSH3 0x461BCD PUSH1 0xE5 SHL DUP2 MSTORE PUSH1 0x20 PUSH1 0x4 DUP3 ADD MSTORE PUSH1 0xF PUSH1 0x24 DUP3 ADD MSTORE PUSH15 0x1D1C985B9CD9995C8819985A5B1959 PUSH1 0x8A SHL PUSH1 0x44 DUP3 ADD MSTORE PUSH1 0x64 ADD PUSH2 0x971 JUMP JUMPDEST PUSH1 0x0 JUMPDEST DUP3 DUP2 LT ISZERO PUSH2 0x1487 JUMPI CALLER PUSH1 0x0 SWAP1 DUP2 MSTORE PUSH1 0x7 PUSH1 0x20 MSTORE PUSH1 0x40 DUP2 KECCAK256 DUP1 SLOAD DUP4 SWAP1 DUP2 LT PUSH2 0x13FA JUMPI PUSH2 0x13FA PUSH2 0x2058 JUMP JUMPDEST PUSH1 0x0 SWAP2 DUP3 MSTORE PUSH1 0x20 SWAP1 SWAP2 KECCAK256 ADD SLOAD PUSH1 0x4 DUP1 SLOAD PUSH1 0x40 MLOAD PUSH4 0x24B48F3 PUSH1 0xE6 SHL DUP2 MSTORE CALLER SWAP3 DUP2 ADD SWAP3 SWAP1 SWAP3 MSTORE PUSH1 0x1 PUSH1 0x1 PUSH1 0xA0 SHL SUB SWAP3 DUP4 AND PUSH1 0x24 DUP4 ADD DUP2 SWAP1 MSTORE SWAP4 POP SWAP2 SWAP1 SWAP2 AND SWAP1 PUSH4 0x92D23CC0 SWAP1 PUSH1 0x44 ADD PUSH1 0x0 PUSH1 0x40 MLOAD DUP1 DUP4 SUB DUP2 PUSH1 0x0 DUP8 DUP1 EXTCODESIZE ISZERO DUP1 ISZERO PUSH2 0x145B JUMPI PUSH1 0x0 DUP1 REVERT JUMPDEST POP GAS CALL ISZERO DUP1 ISZERO PUSH2 0x146F JUMPI RETURNDATASIZE PUSH1 0x0 DUP1 RETURNDATACOPY RETURNDATASIZE PUSH1 0x0 REVERT JUMPDEST POP POP POP POP POP DUP1 DUP1 PUSH2 0x147F SWAP1 PUSH2 0x2084 JUMP JUMPDEST SWAP2 POP POP PUSH2 0x13D1 JUMP JUMPDEST POP POP POP JUMP JUMPDEST PUSH2 0x12B9 ADDRESS DUP3 PUSH2 0x18E3 JUMP JUMPDEST PUSH1 0x1 PUSH1 0x1 PUSH1 0xA0 SHL SUB DUP1 DUP4 AND PUSH1 0x0 SWAP1 DUP2 MSTORE PUSH1 0xE PUSH1 0x20 SWAP1 DUP2 MSTORE PUSH1 0x40 DUP1 DUP4 KECCAK256 SWAP4 DUP6 AND DUP4 MSTORE SWAP3 SWAP1 MSTORE SWAP1 DUP2 KECCAK256 PUSH1 0x1 ADD SLOAD DUP2 PUSH2 0x14CF PUSH3 0x278D00 DUP4 PUSH2 0x210C JUMP JUMPDEST SWAP1 POP DUP1 JUMPDEST SWAP6 SWAP5 POP POP POP POP POP JUMP JUMPDEST PUSH1 0x0 SLOAD PUSH1 0x1 PUSH1 0x1 PUSH1 0xA0 SHL SUB AND CALLER EQ PUSH2 0x1506 JUMPI PUSH1 0x40 MLOAD PUSH3 0x461BCD PUSH1 0xE5 SHL DUP2 MSTORE PUSH1 0x4 ADD PUSH2 0x971 SWAP1 PUSH2 0x209D JUMP JUMPDEST PUSH1 0x4 DUP1 SLOAD PUSH1 0x1 PUSH1 0x1 PUSH1 0xA0 SHL SUB NOT AND PUSH1 0x1 PUSH1 0x1 PUSH1 0xA0 SHL SUB SWAP3 SWAP1 SWAP3 AND SWAP2 SWAP1 SWAP2 OR SWAP1 SSTORE JUMP JUMPDEST PUSH1 0x0 SLOAD PUSH1 0x1 PUSH1 0x1 PUSH1 0xA0 SHL SUB AND CALLER EQ PUSH2 0x1552 JUMPI PUSH1 0x40 MLOAD PUSH3 0x461BCD PUSH1 0xE5 SHL DUP2 MSTORE PUSH1 0x4 ADD PUSH2 0x971 SWAP1 PUSH2 0x209D JUMP JUMPDEST PUSH1 0x1 PUSH1 0x1 PUSH1 0xA0 SHL SUB DUP2 AND PUSH2 0x15B7 JUMPI PUSH1 0x40 MLOAD PUSH3 0x461BCD PUSH1 0xE5 SHL DUP2 MSTORE PUSH1 0x20 PUSH1 0x4 DUP3 ADD MSTORE PUSH1 0x26 PUSH1 0x24 DUP3 ADD MSTORE PUSH32 0x4F776E61626C653A206E6577206F776E657220697320746865207A65726F2061 PUSH1 0x44 DUP3 ADD MSTORE PUSH6 0x646472657373 PUSH1 0xD0 SHL PUSH1 0x64 DUP3 ADD MSTORE PUSH1 0x84 ADD PUSH2 0x971 JUMP JUMPDEST PUSH2 0x12B9 DUP2 PUSH2 0x1774 JUMP JUMPDEST PUSH2 0x15E6 PUSH1 0x40 MLOAD DUP1 PUSH1 0x60 ADD PUSH1 0x40 MSTORE DUP1 PUSH1 0x0 ISZERO ISZERO DUP2 MSTORE PUSH1 0x20 ADD PUSH1 0x60 DUP2 MSTORE PUSH1 0x20 ADD PUSH1 0x60 DUP2 MSTORE POP SWAP1 JUMP JUMPDEST PUSH1 0x1 PUSH1 0x1 PUSH1 0xA0 SHL SUB DUP3 AND PUSH1 0x0 SWAP1 DUP2 MSTORE PUSH1 0x9 PUSH1 0x20 SWAP1 DUP2 MSTORE PUSH1 0x40 SWAP2 DUP3 SWAP1 KECCAK256 DUP3 MLOAD PUSH1 0x60 DUP2 ADD DUP5 MSTORE DUP2 SLOAD PUSH1 0xFF AND ISZERO ISZERO DUP2 MSTORE PUSH1 0x1 DUP3 ADD DUP1 SLOAD DUP6 MLOAD DUP2 DUP7 MUL DUP2 ADD DUP7 ADD SWAP1 SWAP7 MSTORE DUP1 DUP7 MSTORE SWAP2 SWAP5 SWAP3 SWAP4 DUP6 DUP2 ADD SWAP4 SWAP3 SWAP1 DUP4 ADD DUP3 DUP3 DUP1 ISZERO PUSH2 0x166B JUMPI PUSH1 0x20 MUL DUP3 ADD SWAP2 SWAP1 PUSH1 0x0 MSTORE PUSH1 0x20 PUSH1 0x0 KECCAK256 SWAP1 JUMPDEST DUP2 SLOAD PUSH1 0x1 PUSH1 0x1 PUSH1 0xA0 SHL SUB AND DUP2 MSTORE PUSH1 0x1 SWAP1 SWAP2 ADD SWAP1 PUSH1 0x20 ADD DUP1 DUP4 GT PUSH2 0x164D JUMPI JUMPDEST POP POP POP POP POP DUP2 MSTORE PUSH1 0x20 ADD PUSH1 0x2 DUP3 ADD DUP1 SLOAD DUP1 PUSH1 0x20 MUL PUSH1 0x20 ADD PUSH1 0x40 MLOAD SWAP1 DUP2 ADD PUSH1 0x40 MSTORE DUP1 SWAP3 SWAP2 SWAP1 DUP2 DUP2 MSTORE PUSH1 0x20 ADD DUP3 DUP1 SLOAD DUP1 ISZERO PUSH2 0x16E6 JUMPI PUSH1 0x20 MUL DUP3 ADD SWAP2 SWAP1 PUSH1 0x0 MSTORE PUSH1 0x20 PUSH1 0x0 KECCAK256 SWAP1 PUSH1 0x0 SWAP1 JUMPDEST DUP3 SLOAD PUSH2 0x100 DUP4 SWAP1 EXP SWAP1 DIV PUSH1 0xB SIGNEXTEND DUP2 MSTORE PUSH1 0x20 PUSH1 0x17 DUP4 ADD DUP2 SWAP1 DIV SWAP4 DUP5 ADD SWAP4 PUSH1 0x1 SUB PUSH1 0xC SWAP1 SWAP4 ADD SWAP3 SWAP1 SWAP3 MUL SWAP2 ADD DUP1 DUP5 GT PUSH2 0x16B2 JUMPI SWAP1 POP JUMPDEST POP POP POP POP POP DUP2 MSTORE POP POP SWAP1 POP SWAP2 SWAP1 POP JUMP JUMPDEST PUSH2 0x12C6 DUP3 DUP3 PUSH2 0x192E JUMP JUMPDEST PUSH1 0x1 PUSH1 0x1 PUSH1 0xA0 SHL SUB DUP2 AND PUSH1 0x0 SWAP1 DUP2 MSTORE PUSH1 0xA PUSH1 0x20 SWAP1 DUP2 MSTORE PUSH1 0x40 SWAP2 DUP3 SWAP1 KECCAK256 DUP1 SLOAD DUP4 MLOAD DUP2 DUP5 MUL DUP2 ADD DUP5 ADD SWAP1 SWAP5 MSTORE DUP1 DUP5 MSTORE PUSH1 0x60 SWAP4 SWAP3 DUP4 ADD DUP3 DUP3 DUP1 ISZERO PUSH2 0x7C2 JUMPI PUSH1 0x20 MUL DUP3 ADD SWAP2 SWAP1 PUSH1 0x0 MSTORE PUSH1 0x20 PUSH1 0x0 KECCAK256 SWAP1 DUP2 SLOAD PUSH1 0x1 PUSH1 0x1 PUSH1 0xA0 SHL SUB AND DUP2 MSTORE PUSH1 0x1 SWAP1 SWAP2 ADD SWAP1 PUSH1 0x20 ADD DUP1 DUP4 GT PUSH2 0x7A4 JUMPI POP POP POP POP POP SWAP1 POP SWAP2 SWAP1 POP JUMP JUMPDEST PUSH1 0x0 DUP1 SLOAD PUSH1 0x1 PUSH1 0x1 PUSH1 0xA0 SHL SUB DUP4 DUP2 AND PUSH1 0x1 PUSH1 0x1 PUSH1 0xA0 SHL SUB NOT DUP4 AND DUP2 OR DUP5 SSTORE PUSH1 0x40 MLOAD SWAP2 SWAP1 SWAP3 AND SWAP3 DUP4 SWAP2 PUSH32 0x8BE0079C531659141344CD1FD0A4F28419497F9722A3DAAFE3B4186F6B6457E0 SWAP2 SWAP1 LOG3 POP POP JUMP JUMPDEST PUSH1 0x1 PUSH1 0x1 PUSH1 0xA0 SHL SUB DUP3 AND ADDRESS EQ DUP1 PUSH2 0x17E2 JUMPI POP PUSH1 0x1 PUSH1 0x1 PUSH1 0xA0 SHL SUB DUP3 AND ISZERO JUMPDEST ISZERO PUSH2 0x17EB JUMPI POP POP JUMP JUMPDEST PUSH1 0x2 SLOAD PUSH1 0x1 SLOAD PUSH1 0x3 SLOAD PUSH1 0x1 PUSH1 0x1 PUSH1 0xA0 SHL SUB SWAP3 DUP4 AND SWAP3 PUSH4 0x39255D5B SWAP3 DUP2 AND SWAP2 PUSH4 0x317E182F PUSH1 0xE1 SHL SWAP2 AND DUP7 DUP7 PUSH1 0x0 JUMPDEST PUSH1 0x40 MLOAD SWAP1 DUP1 DUP3 MSTORE DUP1 PUSH1 0x1F ADD PUSH1 0x1F NOT AND PUSH1 0x20 ADD DUP3 ADD PUSH1 0x40 MSTORE DUP1 ISZERO PUSH2 0x1842 JUMPI PUSH1 0x20 DUP3 ADD DUP2 DUP1 CALLDATASIZE DUP4 CALLDATACOPY ADD SWAP1 POP JUMPDEST POP PUSH1 0x40 MLOAD PUSH1 0x24 ADD PUSH2 0x1856 SWAP5 SWAP4 SWAP3 SWAP2 SWAP1 PUSH2 0x218A JUMP JUMPDEST PUSH1 0x40 DUP1 MLOAD PUSH1 0x1F NOT DUP2 DUP5 SUB ADD DUP2 MSTORE SWAP2 DUP2 MSTORE PUSH1 0x20 DUP3 ADD DUP1 MLOAD PUSH1 0x1 PUSH1 0x1 PUSH1 0xE0 SHL SUB AND PUSH1 0x1 PUSH1 0x1 PUSH1 0xE0 SHL SUB NOT SWAP5 DUP6 AND OR SWAP1 MSTORE MLOAD PUSH1 0xE0 DUP6 SWAP1 SHL SWAP1 SWAP3 AND DUP3 MSTORE PUSH2 0x189C SWAP3 SWAP2 PUSH1 0x4 ADD PUSH2 0x21CA JUMP JUMPDEST PUSH1 0x0 PUSH1 0x40 MLOAD DUP1 DUP4 SUB DUP2 PUSH1 0x0 DUP8 GAS CALL ISZERO DUP1 ISZERO PUSH2 0x18BB JUMPI RETURNDATASIZE PUSH1 0x0 DUP1 RETURNDATACOPY RETURNDATASIZE PUSH1 0x0 REVERT JUMPDEST POP POP POP POP PUSH1 0x40 MLOAD RETURNDATASIZE PUSH1 0x0 DUP3 RETURNDATACOPY PUSH1 0x1F RETURNDATASIZE SWAP1 DUP2 ADD PUSH1 0x1F NOT AND DUP3 ADD PUSH1 0x40 MSTORE PUSH2 0x1487 SWAP2 SWAP1 DUP2 ADD SWAP1 PUSH2 0x2211 JUMP JUMPDEST PUSH1 0x2 SLOAD PUSH1 0x1 SLOAD PUSH1 0x3 SLOAD PUSH1 0x40 DUP1 MLOAD PUSH1 0x0 DUP2 MSTORE PUSH1 0x20 DUP2 ADD SWAP1 SWAP2 MSTORE PUSH1 0x1 PUSH1 0x1 PUSH1 0xA0 SHL SUB SWAP4 DUP5 AND SWAP4 PUSH4 0x39255D5B SWAP4 DUP2 AND SWAP3 PUSH4 0x5A5999E3 PUSH1 0xE1 SHL SWAP3 PUSH2 0x1856 SWAP3 SWAP1 SWAP2 AND SWAP1 DUP9 SWAP1 DUP9 SWAP1 PUSH1 0x44 DUP2 ADD PUSH2 0x227F JUMP JUMPDEST PUSH1 0x1 PUSH1 0x1 PUSH1 0xA0 SHL SUB DUP3 AND ADDRESS EQ DUP1 PUSH2 0x194C JUMPI POP PUSH1 0x1 PUSH1 0x1 PUSH1 0xA0 SHL SUB DUP3 AND ISZERO JUMPDEST ISZERO PUSH2 0x1955 JUMPI POP POP JUMP JUMPDEST PUSH1 0x2 SLOAD PUSH1 0x1 SLOAD PUSH1 0x3 SLOAD PUSH1 0x1 PUSH1 0x1 PUSH1 0xA0 SHL SUB SWAP3 DUP4 AND SWAP3 PUSH4 0x39255D5B SWAP3 DUP2 AND SWAP2 PUSH4 0x28104D31 PUSH1 0xE1 SHL SWAP2 AND DUP7 DUP7 PUSH1 0x0 PUSH2 0x1818 JUMP JUMPDEST DUP3 DUP1 SLOAD DUP3 DUP3 SSTORE SWAP1 PUSH1 0x0 MSTORE PUSH1 0x20 PUSH1 0x0 KECCAK256 SWAP1 DUP2 ADD SWAP3 DUP3 ISZERO PUSH2 0x19DB JUMPI SWAP2 PUSH1 0x20 MUL DUP3 ADD JUMPDEST DUP3 DUP2 GT ISZERO PUSH2 0x19DB JUMPI DUP3 MLOAD DUP3 SLOAD PUSH1 0x1 PUSH1 0x1 PUSH1 0xA0 SHL SUB NOT AND PUSH1 0x1 PUSH1 0x1 PUSH1 0xA0 SHL SUB SWAP1 SWAP2 AND OR DUP3 SSTORE PUSH1 0x20 SWAP1 SWAP3 ADD SWAP2 PUSH1 0x1 SWAP1 SWAP2 ADD SWAP1 PUSH2 0x19A6 JUMP JUMPDEST POP PUSH2 0x19E7 SWAP3 SWAP2 POP PUSH2 0x1A9D JUMP JUMPDEST POP SWAP1 JUMP JUMPDEST DUP3 DUP1 SLOAD DUP3 DUP3 SSTORE SWAP1 PUSH1 0x0 MSTORE PUSH1 0x20 PUSH1 0x0 KECCAK256 SWAP1 PUSH1 0x1 ADD PUSH1 0x2 SWAP1 DIV DUP2 ADD SWAP3 DUP3 ISZERO PUSH2 0x19DB JUMPI SWAP2 PUSH1 0x20 MUL DUP3 ADD PUSH1 0x0 JUMPDEST DUP4 DUP3 GT ISZERO PUSH2 0x1A61 JUMPI DUP4 MLOAD DUP4 DUP3 PUSH2 0x100 EXP DUP2 SLOAD DUP2 PUSH1 0x1 PUSH1 0x1 PUSH1 0x60 SHL SUB MUL NOT AND SWAP1 DUP4 PUSH1 0xB SIGNEXTEND PUSH1 0x1 PUSH1 0x1 PUSH1 0x60 SHL SUB AND MUL OR SWAP1 SSTORE POP SWAP3 PUSH1 0x20 ADD SWAP3 PUSH1 0xC ADD PUSH1 0x20 DUP2 PUSH1 0xB ADD DIV SWAP3 DUP4 ADD SWAP3 PUSH1 0x1 SUB MUL PUSH2 0x1A14 JUMP JUMPDEST DUP1 ISZERO PUSH2 0x1A94 JUMPI DUP3 DUP2 PUSH2 0x100 EXP DUP2 SLOAD SWAP1 PUSH1 0x1 PUSH1 0x1 PUSH1 0x60 SHL SUB MUL NOT AND SWAP1 SSTORE PUSH1 0xC ADD PUSH1 0x20 DUP2 PUSH1 0xB ADD DIV SWAP3 DUP4 ADD SWAP3 PUSH1 0x1 SUB MUL PUSH2 0x1A61 JUMP JUMPDEST POP POP PUSH2 0x19E7 SWAP3 SWAP2 POP JUMPDEST JUMPDEST DUP1 DUP3 GT ISZERO PUSH2 0x19E7 JUMPI PUSH1 0x0 DUP2 SSTORE PUSH1 0x1 ADD PUSH2 0x1A9E JUMP JUMPDEST DUP1 CALLDATALOAD PUSH1 0x1 PUSH1 0x1 PUSH1 0xA0 SHL SUB DUP2 AND DUP2 EQ PUSH2 0x1AC9 JUMPI PUSH1 0x0 DUP1 REVERT JUMPDEST SWAP2 SWAP1 POP JUMP JUMPDEST PUSH1 0x0 PUSH1 0x20 DUP3 DUP5 SUB SLT ISZERO PUSH2 0x1AE0 JUMPI PUSH1 0x0 DUP1 REVERT JUMPDEST PUSH2 0x1AE9 DUP3 PUSH2 0x1AB2 JUMP JUMPDEST SWAP4 SWAP3 POP POP POP JUMP JUMPDEST PUSH1 0x20 DUP1 DUP3 MSTORE DUP3 MLOAD DUP3 DUP3 ADD DUP2 SWAP1 MSTORE PUSH1 0x0 SWAP2 SWAP1 DUP5 DUP3 ADD SWAP1 PUSH1 0x40 DUP6 ADD SWAP1 DUP5 JUMPDEST DUP2 DUP2 LT ISZERO PUSH2 0x1B31 JUMPI DUP4 MLOAD PUSH1 0x1 PUSH1 0x1 PUSH1 0xA0 SHL SUB AND DUP4 MSTORE SWAP3 DUP5 ADD SWAP3 SWAP2 DUP5 ADD SWAP2 PUSH1 0x1 ADD PUSH2 0x1B0C JUMP JUMPDEST POP SWAP1 SWAP7 SWAP6 POP POP POP POP POP POP JUMP JUMPDEST PUSH4 0x4E487B71 PUSH1 0xE0 SHL PUSH1 0x0 MSTORE PUSH1 0x41 PUSH1 0x4 MSTORE PUSH1 0x24 PUSH1 0x0 REVERT JUMPDEST PUSH1 0x40 MLOAD PUSH1 0x1F DUP3 ADD PUSH1 0x1F NOT AND DUP2 ADD PUSH8 0xFFFFFFFFFFFFFFFF DUP2 GT DUP3 DUP3 LT OR ISZERO PUSH2 0x1B7C JUMPI PUSH2 0x1B7C PUSH2 0x1B3D JUMP JUMPDEST PUSH1 0x40 MSTORE SWAP2 SWAP1 POP JUMP JUMPDEST PUSH1 0x0 PUSH8 0xFFFFFFFFFFFFFFFF DUP3 GT ISZERO PUSH2 0x1B9E JUMPI PUSH2 0x1B9E PUSH2 0x1B3D JUMP JUMPDEST POP PUSH1 0x1F ADD PUSH1 0x1F NOT AND PUSH1 0x20 ADD SWAP1 JUMP JUMPDEST PUSH1 0x0 PUSH1 0x20 DUP3 DUP5 SUB SLT ISZERO PUSH2 0x1BBE JUMPI PUSH1 0x0 DUP1 REVERT JUMPDEST DUP2 CALLDATALOAD PUSH8 0xFFFFFFFFFFFFFFFF DUP2 GT ISZERO PUSH2 0x1BD5 JUMPI PUSH1 0x0 DUP1 REVERT JUMPDEST DUP3 ADD PUSH1 0x1F DUP2 ADD DUP5 SGT PUSH2 0x1BE6 JUMPI PUSH1 0x0 DUP1 REVERT JUMPDEST DUP1 CALLDATALOAD PUSH2 0x1BF9 PUSH2 0x1BF4 DUP3 PUSH2 0x1B84 JUMP JUMPDEST PUSH2 0x1B53 JUMP JUMPDEST DUP2 DUP2 MSTORE DUP6 PUSH1 0x20 DUP4 DUP6 ADD ADD GT ISZERO PUSH2 0x1C0E JUMPI PUSH1 0x0 DUP1 REVERT JUMPDEST DUP2 PUSH1 0x20 DUP5 ADD PUSH1 0x20 DUP4 ADD CALLDATACOPY PUSH1 0x0 SWAP2 DUP2 ADD PUSH1 0x20 ADD SWAP2 SWAP1 SWAP2 MSTORE SWAP5 SWAP4 POP POP POP POP JUMP JUMPDEST PUSH1 0x0 DUP1 PUSH1 0x40 DUP4 DUP6 SUB SLT ISZERO PUSH2 0x1C3F JUMPI PUSH1 0x0 DUP1 REVERT JUMPDEST PUSH2 0x1C48 DUP4 PUSH2 0x1AB2 JUMP JUMPDEST SWAP2 POP PUSH2 0x1C56 PUSH1 0x20 DUP5 ADD PUSH2 0x1AB2 JUMP JUMPDEST SWAP1 POP SWAP3 POP SWAP3 SWAP1 POP JUMP JUMPDEST PUSH1 0x0 PUSH2 0x120 DUP3 ADD SWAP1 POP DUP3 MLOAD ISZERO ISZERO DUP3 MSTORE PUSH1 0x20 DUP4 ADD MLOAD PUSH1 0x20 DUP4 ADD MSTORE PUSH1 0x40 DUP4 ADD MLOAD PUSH1 0x40 DUP4 ADD MSTORE PUSH1 0x60 DUP4 ADD MLOAD PUSH1 0x60 DUP4 ADD MSTORE PUSH1 0x80 DUP4 ADD MLOAD PUSH1 0x80 DUP4 ADD MSTORE PUSH1 0xA0 DUP4 ADD MLOAD PUSH1 0xA0 DUP4 ADD MSTORE PUSH1 0xC0 DUP4 ADD MLOAD ISZERO ISZERO PUSH1 0xC0 DUP4 ADD MSTORE PUSH1 0xE0 DUP4 ADD MLOAD PUSH2 0x1CBF PUSH1 0xE0 DUP5 ADD DUP3 ISZERO ISZERO SWAP1 MSTORE JUMP JUMPDEST POP PUSH2 0x100 SWAP3 DUP4 ADD MLOAD ISZERO ISZERO SWAP2 SWAP1 SWAP3 ADD MSTORE SWAP1 JUMP JUMPDEST PUSH1 0x0 DUP1 PUSH1 0x0 DUP1 PUSH1 0x0 PUSH1 0xA0 DUP7 DUP9 SUB SLT ISZERO PUSH2 0x1CE9 JUMPI PUSH1 0x0 DUP1 REVERT JUMPDEST PUSH2 0x1CF2 DUP7 PUSH2 0x1AB2 JUMP JUMPDEST SWAP8 PUSH1 0x20 DUP8 ADD CALLDATALOAD SWAP8 POP PUSH1 0x40 DUP8 ADD CALLDATALOAD SWAP7 PUSH1 0x60 DUP2 ADD CALLDATALOAD SWAP7 POP PUSH1 0x80 ADD CALLDATALOAD SWAP5 POP SWAP3 POP POP POP JUMP JUMPDEST PUSH1 0x0 PUSH8 0xFFFFFFFFFFFFFFFF DUP3 GT ISZERO PUSH2 0x1D2D JUMPI PUSH2 0x1D2D PUSH2 0x1B3D JUMP JUMPDEST POP PUSH1 0x5 SHL PUSH1 0x20 ADD SWAP1 JUMP JUMPDEST DUP1 CALLDATALOAD PUSH1 0xB DUP2 SWAP1 SIGNEXTEND DUP2 EQ PUSH2 0x1AC9 JUMPI PUSH1 0x0 DUP1 REVERT JUMPDEST PUSH1 0x0 DUP3 PUSH1 0x1F DUP4 ADD SLT PUSH2 0x1D5A JUMPI PUSH1 0x0 DUP1 REVERT JUMPDEST DUP2 CALLDATALOAD PUSH1 0x20 PUSH2 0x1D6A PUSH2 0x1BF4 DUP4 PUSH2 0x1D13 JUMP JUMPDEST DUP3 DUP2 MSTORE PUSH1 0x5 SWAP3 SWAP1 SWAP3 SHL DUP5 ADD DUP2 ADD SWAP2 DUP2 DUP2 ADD SWAP1 DUP7 DUP5 GT ISZERO PUSH2 0x1D89 JUMPI PUSH1 0x0 DUP1 REVERT JUMPDEST DUP3 DUP7 ADD JUMPDEST DUP5 DUP2 LT ISZERO PUSH2 0x1DAB JUMPI PUSH2 0x1D9E DUP2 PUSH2 0x1D37 JUMP JUMPDEST DUP4 MSTORE SWAP2 DUP4 ADD SWAP2 DUP4 ADD PUSH2 0x1D8D JUMP JUMPDEST POP SWAP7 SWAP6 POP POP POP POP POP POP JUMP JUMPDEST PUSH1 0x0 DUP1 PUSH1 0x40 DUP4 DUP6 SUB SLT ISZERO PUSH2 0x1DC9 JUMPI PUSH1 0x0 DUP1 REVERT JUMPDEST DUP3 CALLDATALOAD PUSH8 0xFFFFFFFFFFFFFFFF DUP1 DUP3 GT ISZERO PUSH2 0x1DE1 JUMPI PUSH1 0x0 DUP1 REVERT JUMPDEST DUP2 DUP6 ADD SWAP2 POP DUP6 PUSH1 0x1F DUP4 ADD SLT PUSH2 0x1DF5 JUMPI PUSH1 0x0 DUP1 REVERT JUMPDEST DUP2 CALLDATALOAD PUSH1 0x20 PUSH2 0x1E05 PUSH2 0x1BF4 DUP4 PUSH2 0x1D13 JUMP JUMPDEST DUP3 DUP2 MSTORE PUSH1 0x5 SWAP3 SWAP1 SWAP3 SHL DUP5 ADD DUP2 ADD SWAP2 DUP2 DUP2 ADD SWAP1 DUP10 DUP5 GT ISZERO PUSH2 0x1E24 JUMPI PUSH1 0x0 DUP1 REVERT JUMPDEST SWAP5 DUP3 ADD SWAP5 JUMPDEST DUP4 DUP7 LT ISZERO PUSH2 0x1E49 JUMPI PUSH2 0x1E3A DUP7 PUSH2 0x1AB2 JUMP JUMPDEST DUP3 MSTORE SWAP5 DUP3 ADD SWAP5 SWAP1 DUP3 ADD SWAP1 PUSH2 0x1E29 JUMP JUMPDEST SWAP7 POP POP DUP7 ADD CALLDATALOAD SWAP3 POP POP DUP1 DUP3 GT ISZERO PUSH2 0x1E5F JUMPI PUSH1 0x0 DUP1 REVERT JUMPDEST POP PUSH2 0x1E6C DUP6 DUP3 DUP7 ADD PUSH2 0x1D49 JUMP JUMPDEST SWAP2 POP POP SWAP3 POP SWAP3 SWAP1 POP JUMP JUMPDEST PUSH1 0x0 DUP1 PUSH1 0x40 DUP4 DUP6 SUB SLT ISZERO PUSH2 0x1E89 JUMPI PUSH1 0x0 DUP1 REVERT JUMPDEST PUSH2 0x1E92 DUP4 PUSH2 0x1AB2 JUMP JUMPDEST SWAP5 PUSH1 0x20 SWAP4 SWAP1 SWAP4 ADD CALLDATALOAD SWAP4 POP POP POP JUMP JUMPDEST DUP2 MLOAD PUSH1 0x1 PUSH1 0x1 PUSH1 0xA0 SHL SUB AND DUP2 MSTORE PUSH1 0x20 DUP1 DUP4 ADD MLOAD ISZERO ISZERO SWAP1 DUP3 ADD MSTORE PUSH1 0x40 DUP1 DUP4 ADD MLOAD ISZERO ISZERO SWAP1 DUP3 ADD MSTORE PUSH1 0x60 DUP1 DUP4 ADD MLOAD ISZERO ISZERO SWAP1 DUP3 ADD MSTORE PUSH1 0x80 DUP1 DUP4 ADD MLOAD PUSH2 0x100 DUP4 ADD SWAP2 PUSH2 0x1EEA SWAP1 DUP5 ADD DUP3 ISZERO ISZERO SWAP1 MSTORE JUMP JUMPDEST POP PUSH1 0xA0 DUP4 ADD MLOAD PUSH1 0xA0 DUP4 ADD MSTORE PUSH1 0xC0 DUP4 ADD MLOAD PUSH1 0xC0 DUP4 ADD MSTORE PUSH1 0xE0 DUP4 ADD MLOAD PUSH1 0xE0 DUP4 ADD MSTORE SWAP3 SWAP2 POP POP JUMP JUMPDEST PUSH1 0x0 PUSH1 0x20 DUP3 DUP5 SUB SLT ISZERO PUSH2 0x1F21 JUMPI PUSH1 0x0 DUP1 REVERT JUMPDEST DUP2 CALLDATALOAD PUSH1 0xFF DUP2 AND DUP2 EQ PUSH2 0x1AE9 JUMPI PUSH1 0x0 DUP1 REVERT JUMPDEST PUSH1 0x0 DUP1 PUSH1 0x40 DUP4 DUP6 SUB SLT ISZERO PUSH2 0x1F45 JUMPI PUSH1 0x0 DUP1 REVERT JUMPDEST PUSH2 0x1F4E DUP4 PUSH2 0x1AB2 JUMP JUMPDEST SWAP2 POP PUSH2 0x1C56 PUSH1 0x20 DUP5 ADD PUSH2 0x1D37 JUMP JUMPDEST PUSH1 0x0 DUP2 MLOAD DUP1 DUP5 MSTORE PUSH1 0x20 DUP1 DUP6 ADD SWAP5 POP DUP1 DUP5 ADD PUSH1 0x0 JUMPDEST DUP4 DUP2 LT ISZERO PUSH2 0x1F8F JUMPI DUP2 MLOAD PUSH1 0xB SIGNEXTEND DUP8 MSTORE SWAP6 DUP3 ADD SWAP6 SWAP1 DUP3 ADD SWAP1 PUSH1 0x1 ADD PUSH2 0x1F70 JUMP JUMPDEST POP SWAP5 SWAP6 SWAP5 POP POP POP POP POP JUMP JUMPDEST PUSH1 0x20 DUP1 DUP3 MSTORE DUP3 MLOAD ISZERO ISZERO DUP3 DUP3 ADD MSTORE DUP3 DUP2 ADD MLOAD PUSH1 0x60 PUSH1 0x40 DUP5 ADD MSTORE DUP1 MLOAD PUSH1 0x80 DUP5 ADD DUP2 SWAP1 MSTORE PUSH1 0x0 SWAP3 SWAP2 DUP3 ADD SWAP1 DUP4 SWAP1 PUSH1 0xA0 DUP7 ADD SWAP1 JUMPDEST DUP1 DUP4 LT ISZERO PUSH2 0x1FF3 JUMPI DUP4 MLOAD PUSH1 0x1 PUSH1 0x1 PUSH1 0xA0 SHL SUB AND DUP3 MSTORE SWAP3 DUP5 ADD SWAP3 PUSH1 0x1 SWAP3 SWAP1 SWAP3 ADD SWAP2 SWAP1 DUP5 ADD SWAP1 PUSH2 0x1FCA JUMP JUMPDEST POP PUSH1 0x40 DUP8 ADD MLOAD DUP7 DUP3 SUB PUSH1 0x1F NOT ADD PUSH1 0x60 DUP9 ADD MSTORE SWAP4 POP PUSH2 0x2011 DUP2 DUP6 PUSH2 0x1F5C JUMP JUMPDEST SWAP8 SWAP7 POP POP POP POP POP POP POP JUMP JUMPDEST PUSH1 0x0 DUP1 PUSH1 0x0 PUSH1 0x60 DUP5 DUP7 SUB SLT ISZERO PUSH2 0x2031 JUMPI PUSH1 0x0 DUP1 REVERT JUMPDEST PUSH2 0x203A DUP5 PUSH2 0x1AB2 JUMP JUMPDEST SWAP3 POP PUSH1 0x20 DUP5 ADD CALLDATALOAD SWAP2 POP PUSH2 0x204F PUSH1 0x40 DUP6 ADD PUSH2 0x1AB2 JUMP JUMPDEST SWAP1 POP SWAP3 POP SWAP3 POP SWAP3 JUMP JUMPDEST PUSH4 0x4E487B71 PUSH1 0xE0 SHL PUSH1 0x0 MSTORE PUSH1 0x32 PUSH1 0x4 MSTORE PUSH1 0x24 PUSH1 0x0 REVERT JUMPDEST PUSH4 0x4E487B71 PUSH1 0xE0 SHL PUSH1 0x0 MSTORE PUSH1 0x11 PUSH1 0x4 MSTORE PUSH1 0x24 PUSH1 0x0 REVERT JUMPDEST PUSH1 0x0 PUSH1 0x1 DUP3 ADD PUSH2 0x2096 JUMPI PUSH2 0x2096 PUSH2 0x206E JUMP JUMPDEST POP PUSH1 0x1 ADD SWAP1 JUMP JUMPDEST PUSH1 0x20 DUP1 DUP3 MSTORE DUP2 DUP2 ADD MSTORE PUSH32 0x4F776E61626C653A2063616C6C6572206973206E6F7420746865206F776E6572 PUSH1 0x40 DUP3 ADD MSTORE PUSH1 0x60 ADD SWAP1 JUMP JUMPDEST PUSH1 0x0 DUP3 NOT DUP3 GT ISZERO PUSH2 0x20E5 JUMPI PUSH2 0x20E5 PUSH2 0x206E JUMP JUMPDEST POP ADD SWAP1 JUMP JUMPDEST PUSH1 0x0 PUSH1 0x20 DUP3 DUP5 SUB SLT ISZERO PUSH2 0x20FC JUMPI PUSH1 0x0 DUP1 REVERT JUMPDEST DUP2 MLOAD DUP1 ISZERO ISZERO DUP2 EQ PUSH2 0x1AE9 JUMPI PUSH1 0x0 DUP1 REVERT JUMPDEST PUSH1 0x0 DUP3 PUSH2 0x2129 JUMPI PUSH4 0x4E487B71 PUSH1 0xE0 SHL PUSH1 0x0 MSTORE PUSH1 0x12 PUSH1 0x4 MSTORE PUSH1 0x24 PUSH1 0x0 REVERT JUMPDEST POP DIV SWAP1 JUMP JUMPDEST PUSH1 0x0 JUMPDEST DUP4 DUP2 LT ISZERO PUSH2 0x2149 JUMPI DUP2 DUP2 ADD MLOAD DUP4 DUP3 ADD MSTORE PUSH1 0x20 ADD PUSH2 0x2131 JUMP JUMPDEST DUP4 DUP2 GT ISZERO PUSH2 0x2158 JUMPI PUSH1 0x0 DUP5 DUP5 ADD MSTORE JUMPDEST POP POP POP POP JUMP JUMPDEST PUSH1 0x0 DUP2 MLOAD DUP1 DUP5 MSTORE PUSH2 0x2176 DUP2 PUSH1 0x20 DUP7 ADD PUSH1 0x20 DUP7 ADD PUSH2 0x212E JUMP JUMPDEST PUSH1 0x1F ADD PUSH1 0x1F NOT AND SWAP3 SWAP1 SWAP3 ADD PUSH1 0x20 ADD SWAP3 SWAP2 POP POP JUMP JUMPDEST PUSH1 0x1 PUSH1 0x1 PUSH1 0xA0 SHL SUB DUP6 DUP2 AND DUP3 MSTORE DUP5 AND PUSH1 0x20 DUP3 ADD MSTORE PUSH1 0xB DUP4 SWAP1 SIGNEXTEND PUSH1 0x40 DUP3 ADD MSTORE PUSH1 0x80 PUSH1 0x60 DUP3 ADD DUP2 SWAP1 MSTORE PUSH1 0x0 SWAP1 PUSH2 0x21C0 SWAP1 DUP4 ADD DUP5 PUSH2 0x215E JUMP JUMPDEST SWAP7 SWAP6 POP POP POP POP POP POP JUMP JUMPDEST PUSH1 0x1 PUSH1 0x1 PUSH1 0xA0 SHL SUB DUP4 AND DUP2 MSTORE PUSH1 0x60 PUSH1 0x20 DUP3 ADD DUP2 SWAP1 MSTORE PUSH1 0x0 SWAP1 PUSH2 0x21EE SWAP1 DUP4 ADD DUP5 PUSH2 0x215E JUMP JUMPDEST DUP3 DUP2 SUB PUSH1 0x40 SWAP4 DUP5 ADD MSTORE PUSH1 0x2 DUP2 MSTORE PUSH2 0x60F PUSH1 0xF3 SHL PUSH1 0x20 DUP3 ADD MSTORE SWAP2 SWAP1 SWAP2 ADD SWAP4 SWAP3 POP POP POP JUMP JUMPDEST PUSH1 0x0 PUSH1 0x20 DUP3 DUP5 SUB SLT ISZERO PUSH2 0x2223 JUMPI PUSH1 0x0 DUP1 REVERT JUMPDEST DUP2 MLOAD PUSH8 0xFFFFFFFFFFFFFFFF DUP2 GT ISZERO PUSH2 0x223A JUMPI PUSH1 0x0 DUP1 REVERT JUMPDEST DUP3 ADD PUSH1 0x1F DUP2 ADD DUP5 SGT PUSH2 0x224B JUMPI PUSH1 0x0 DUP1 REVERT JUMPDEST DUP1 MLOAD PUSH2 0x2259 PUSH2 0x1BF4 DUP3 PUSH2 0x1B84 JUMP JUMPDEST DUP2 DUP2 MSTORE DUP6 PUSH1 0x20 DUP4 DUP6 ADD ADD GT ISZERO PUSH2 0x226E JUMPI PUSH1 0x0 DUP1 REVERT JUMPDEST PUSH2 0x14D3 DUP3 PUSH1 0x20 DUP4 ADD PUSH1 0x20 DUP7 ADD PUSH2 0x212E JUMP JUMPDEST PUSH1 0x1 PUSH1 0x1 PUSH1 0xA0 SHL SUB DUP6 DUP2 AND DUP3 MSTORE DUP5 DUP2 AND PUSH1 0x20 DUP4 ADD MSTORE DUP4 AND PUSH1 0x40 DUP3 ADD MSTORE PUSH1 0x80 PUSH1 0x60 DUP3 ADD DUP2 SWAP1 MSTORE PUSH1 0x0 SWAP1 PUSH2 0x21C0 SWAP1 DUP4 ADD DUP5 PUSH2 0x215E JUMP INVALID LOG2 PUSH5 0x6970667358 0x22 SLT KECCAK256 DIV 0x1F DUP11 0xE8 BLOCKHASH RETURNDATASIZE PUSH18 0x7080D182D10AD2D715C7BD8F27D0AEB9D01F 0xC8 DUP10 MSTORE8 PUSH5 0xF282076473 PUSH16 0x6C634300080D00330000000000000000 ",
  "sha1": "c9c7cac07203bddde2dfed309d7ac46b58b58483",
  "source": "// SPDX-License-Identifier: MIT\npragma solidity ^0.8.0;\n\nimport {IConstantFlowAgreementV1} from \"@superfluid/interfaces/agreements/IConstantFlowAgreementV1.sol\";\nimport {ISuperTokenFactory} from \"@superfluid/interfaces/superfluid/ISuperTokenFactory.sol\";\nimport {ISuperfluid, ISuperToken, ISuperApp, ISuperAgreement, SuperAppDefinitions} from \"@superfluid/interfaces/superfluid/ISuperfluid.sol\";\nimport {Ownable} from \"@openzeppelin/contracts/access/Ownable.sol\";\nimport {IPoolAddressesProvider} from \"../interfaces/IPoolAddressesProvider.sol\";\nimport {IPool} from \"../interfaces/IPool.sol\";\nimport {ITrustIDA} from \"../interfaces/ITrustIDA.sol\";\n\nimport {IERC20} from \"@openzeppelin/contracts/token/ERC20/IERC20.sol\";\n\nerror Emploee__not_in__List();\n\ncontract TrustCFA is Ownable {\n    IConstantFlowAgreementV1 private _cfa;\n    ISuperfluid private _host;\n    ISuperToken private _acceptedToken;\n    ITrustIDA idaContract;\n\n    //assets to invest\n    mapping(string => address) public s_assetAddress;\n\n    struct Company {\n        address _address;\n        bool status;\n        bool payingInstram;\n        bool payingPeriodically;\n        bool payingOneTime; //If they have added a onetime Payment ie employee\n        uint256 totalPaying; //Total amount they are paying\n        uint256 totalperiodicPaid; //Total paid in periodic payments\n        uint256 streamStart; //@dev: tracks the time when the stream begins for accountability\n    }\n\n    // company to a onetime payment Id to an recipient address to amount\n    mapping(address => mapping(uint256 => mapping(address => uint256)))\n        public companyOneTimePayIdAddressAmount;\n\n    mapping(address => address[]) public s_companyEmployees;\n\n    mapping(address => Company) public s_companyInfo;\n\n    struct EmployeeInfo {\n        bool isActive;\n        uint256 monthlyIncome;\n        uint256 startTime;\n        uint256 paymentInterval;\n        uint256 endTime;\n        uint256 totalpaid;\n        bool isStreamed;\n        bool isPeriodic;\n        bool isOneTime;\n    }\n\n    struct Updateables {\n        bool isUpdatable;\n        address[] _addresses;\n        int96[] _updates;\n    }\n\n    //addresses of the employer's employees to update streams.\n    mapping(address => Updateables) private _updatableEmployees;\n\n    mapping(address => address[]) private employeeEmployers; //people paying an address\n\n    //addresses of people paid periodically\n    address[] private periodicEmployees;\n    //addresses of users paid in streams\n    address[] private streamEmployees;\n\n    //the total amount paid to one time users.\n    mapping(address => uint256) public oneTimeUserTotalPay;\n\n    //employer to employee to information\n    mapping(address => mapping(address => EmployeeInfo)) private s_employeeinfo;\n\n    address private investmentKeeper;\n\n    modifier onlyAdmin() {\n        require(msg.sender == owner());\n        _;\n    }\n\n    modifier onlyInvestmentKeeper() {\n        require(msg.sender == investmentKeeper);\n        _;\n    }\n\n    constructor(address host, address cfa) {\n        _host = ISuperfluid(host);\n        _cfa = IConstantFlowAgreementV1(cfa);\n    }\n\n    /**\n     * @notice add a compny to the platform\n     * @dev only callable by the contract admin\n     * @param _payType: the type of payment the company gives ie. Installments or stream\n     */\n    function _createCompany(uint8 _payType) external {\n        if (_payType == 0) {\n            s_companyInfo[msg.sender] = Company(\n                msg.sender,\n                true,\n                true,\n                false,\n                false,\n                0,\n                0,\n                0\n            );\n        }\n        if (_payType == 1) {\n            s_companyInfo[msg.sender] = Company(\n                msg.sender,\n                true,\n                false,\n                true,\n                false,\n                0,\n                0,\n                0\n            );\n        } else {\n            s_companyInfo[msg.sender] = Company(\n                msg.sender,\n                true,\n                false,\n                false,\n                true,\n                0,\n                0,\n                0\n            );\n        }\n    }\n\n    /**\n     * @notice add an employer to the platform\n     * @dev only callable by an active employer\n     * @param _employeeAddress: address of the employer\n     * @param _salary: the employee salary\n     * @param _paymentInterval: the interval to which the employee receives the pay\n     */\n    function _addemployee(\n        address _employeeAddress,\n        uint256 _salary,\n        uint256 _paymentInterval,\n        uint256 _endOfContract, //** */\n        uint256 _payType\n    ) external {\n        Company storage company = s_companyInfo[msg.sender];\n        require(company.status == true, \"not active\");\n        if (_payType == 0) {\n            s_employeeinfo[msg.sender][_employeeAddress] = EmployeeInfo(\n                false,\n                _salary,\n                block.timestamp,\n                _paymentInterval,\n                _endOfContract,\n                uint256(0),\n                true,\n                false,\n                false\n            );\n            s_companyInfo[msg.sender].totalPaying += _salary;\n            s_companyEmployees[msg.sender].push(_employeeAddress);\n            streamEmployees.push(_employeeAddress);\n        }\n\n        if (_payType == 1) {\n            s_employeeinfo[msg.sender][_employeeAddress] = EmployeeInfo(\n                false,\n                _salary,\n                block.timestamp,\n                _paymentInterval,\n                _endOfContract,\n                uint256(0),\n                false,\n                true,\n                false\n            );\n            s_companyInfo[msg.sender].totalPaying += _salary;\n            s_companyEmployees[msg.sender].push(_employeeAddress);\n            periodicEmployees.push(_employeeAddress);\n        }\n        employeeEmployers[_employeeAddress].push(msg.sender);\n    }\n\n    function getEmployeeIndex(address _employee)\n        public\n        view\n        returns (uint256 index)\n    {\n        uint256 size = getTotalCompanyEmployees(msg.sender);\n        for (uint256 i = 0; i > size; i++) {\n            if (s_companyEmployees[msg.sender][i] == _employee) {\n                index = i;\n            }\n        }\n    }\n\n    function removeEmployee(address _employee) external {\n        //require(msg.sender == s_employeeinfo[][_employee].employer);\n        //uint256 indexToremove = getEmployeeIndex(_employee);\n        //uint256 size = getTotalCompanyEmployees(msg.sender) - 1;\n        s_employeeinfo[msg.sender][_employee] = EmployeeInfo(\n            false,\n            0,\n            0,\n            0,\n            0,\n            0,\n            false,\n            false,\n            false\n        );\n        //if (s_companyInfo[msg.sender].isPeriodic == true) {\n        //    //remove employee from IDA\n        //    idaContract.removeAddress(_employee);\n        //}\n        //if (indexToremove == size) {\n        //    s_companyEmployees[msg.sender].pop();\n        //} else {\n        //    s_companyEmployees[msg.sender][indexToremove] = s_companyEmployees[\n        //        msg.sender\n        //    ][size];\n        //    s_companyEmployees[msg.sender].pop();\n        //}\n    }\n\n    /*\n\n*/\n    function makePayment() external /**recurring */\n    {\n        uint256 c_length = s_companyEmployees[msg.sender].length;\n        require(c_length > 0);\n        bool success = _acceptedToken.transferFrom(\n            msg.sender,\n            address(idaContract),\n            getTotalPaying(msg.sender)\n        );\n        if (!success) {\n            revert(\"transfer failed\");\n        }\n        for (uint256 i = 0; i < c_length; i++) {\n            address employee = s_companyEmployees[msg.sender][i];\n            idaContract._addAddressToIndex(msg.sender, employee);\n        }\n    }\n\n    //individual employee payment\n    //approve certain addresses\n\n    function _prepareStreamUpdate(\n        address[] memory _employees,\n        int96[] memory _amounts\n    ) external {\n        Company storage company = s_companyInfo[msg.sender];\n        require(_employees.length == _amounts.length, \"arrays !eq\");\n        uint256 _length = _amounts.length;\n        uint256 _companyAddresses = s_companyEmployees[msg.sender].length;\n        require(_length <= s_companyEmployees[msg.sender].length); //@dev: can't update more addresses than yours\n        uint256 _counter;\n        for (uint256 i = 0; i < _length; ) {\n            address user = _employees[i];\n            for (uint256 j = 0; j < _companyAddresses; ) {\n                if (s_companyEmployees[msg.sender][j] == user) {\n                    _counter += 1;\n                }\n                unchecked {\n                    j++;\n                }\n            }\n            unchecked {\n                i++;\n            }\n        }\n        if (_counter == _length) {\n            _updatableEmployees[msg.sender] = Updateables(\n                true,\n                _employees,\n                _amounts\n            );\n        } else {\n            revert Emploee__not_in__List();\n        }\n    }\n\n    function openStream(address _to, int96 _flowRate) external {\n        _createFlow(_to, _flowRate);\n    }\n\n    function closeStream(address _to) external {\n        _deleteFlow(address(this), _to);\n    }\n\n    function reduceFlow(address to, int96 flowRate) external {\n        _updateFlow(to, flowRate);\n    }\n\n    function _createFlow(address to, int96 flowRate) internal {\n        if (to == address(this) || to == address(0)) return;\n        _host.callAgreement(\n            _cfa,\n            abi.encodeWithSelector(\n                _cfa.createFlow.selector,\n                _acceptedToken,\n                to,\n                flowRate,\n                new bytes(0) // placeholder\n            ),\n            \"0x\"\n        );\n    }\n\n    function _updateFlow(address to, int96 flowRate) internal {\n        if (to == address(this) || to == address(0)) return;\n        _host.callAgreement(\n            _cfa,\n            abi.encodeWithSelector(\n                _cfa.updateFlow.selector,\n                _acceptedToken,\n                to,\n                flowRate,\n                new bytes(0) // placeholder\n            ),\n            \"0x\"\n        );\n    }\n\n    function _deleteFlow(address from, address to) internal {\n        _host.callAgreement(\n            _cfa,\n            abi.encodeWithSelector(\n                _cfa.deleteFlow.selector,\n                _acceptedToken,\n                from,\n                to,\n                new bytes(0) // placeholder\n            ),\n            \"0x\"\n        );\n    }\n\n    function addAdmin(address _keeper) external {\n        investmentKeeper = _keeper;\n    }\n\n    function addIdaContract(address _idaCon) external onlyOwner {\n        idaContract = ITrustIDA(_idaCon);\n    }\n\n    /*\n        @constanteen: call this function after conection to ascertain if its a company\n        @param: _companyAddress, the address connected on metamask\n    */\n    function isActiveCompany(address _companyAddress)\n        public\n        view\n        returns (bool)\n    {\n        return s_companyInfo[_companyAddress]._address != address(0);\n    }\n\n    function getEmployeeFlowRate(address _company, address _employee)\n        external\n        view\n        returns (int96)\n    {\n        uint256 salary = s_employeeinfo[_company][_employee].monthlyIncome;\n        uint256 _flowRate = salary / 30 days;\n        return toIint(_flowRate);\n    }\n\n    function toIint(uint256 number) private pure returns (int96) {\n        int256 number1 = int256(number);\n        return (int96(number1));\n    }\n\n    //total number of periodic employees\n    function getPeriodicEmployee() external view returns (uint256 len) {\n        len = periodicEmployees.length;\n    }\n\n    //Total people on playlist\n    function getTotalCompanyEmployees(address _company)\n        public\n        view\n        returns (uint256)\n    {\n        return s_companyEmployees[_company].length;\n    }\n\n    //The total Amount the company is paying\n    function getTotalPaying(address _company) public view returns (uint256) {\n        return s_companyInfo[_company].totalPaying;\n    }\n\n    /**\n     * @notice get an employer's infor\n     * @param _company: employee address\n     */\n    function viewCompanyInfo(address _company)\n        external\n        view\n        returns (Company memory)\n    {\n        return s_companyInfo[_company];\n    }\n\n    /**\n     * @notice get an employee's infor\n     * @param _employee: employee address\n     */\n    function viewEmployeeInfo(address _company, address _employee)\n        external\n        view\n        returns (EmployeeInfo memory)\n    {\n        return s_employeeinfo[_company][_employee];\n    }\n\n    function viewCompanyEmployees(address _company)\n        external\n        view\n        returns (address[] memory fullList)\n    {\n        fullList = s_companyEmployees[_company];\n    }\n\n    function getEmployeeEmployers(address _employee)\n        external\n        view\n        returns (address[] memory)\n    {\n        return employeeEmployers[_employee];\n    }\n\n    function getUpdateables(address _employer)\n        external\n        view\n        returns (Updateables memory _updates)\n    {\n        _updates = _updatableEmployees[_employer];\n    }\n}\n",
  "sourcePath": "contracts/TrustMain.sol",
  "type": "contract"
}